{
  "address": "0x8d58AF4ff58f3D3F9A61A3e306057CB3242D047b",
  "abi": [
    {
      "anonymous": false,
      "inputs": [
        {
          "indexed": false,
          "internalType": "address",
          "name": "newPool",
          "type": "address"
        }
      ],
      "name": "AddPool",
      "type": "event"
    },
    {
      "anonymous": false,
      "inputs": [
        {
          "indexed": true,
          "internalType": "address",
          "name": "src",
          "type": "address"
        },
        {
          "indexed": true,
          "internalType": "address",
          "name": "guy",
          "type": "address"
        },
        {
          "indexed": false,
          "internalType": "uint256",
          "name": "wad",
          "type": "uint256"
        }
      ],
      "name": "Approval",
      "type": "event"
    },
    {
      "anonymous": false,
      "inputs": [
        {
          "indexed": false,
          "internalType": "address",
          "name": "oldAdmin",
          "type": "address"
        },
        {
          "indexed": false,
          "internalType": "address",
          "name": "newAdmin",
          "type": "address"
        }
      ],
      "name": "ClaimAdmin",
      "type": "event"
    },
    {
      "anonymous": false,
      "inputs": [
        {
          "indexed": true,
          "internalType": "address",
          "name": "poolAddress",
          "type": "address"
        },
        {
          "indexed": false,
          "internalType": "uint256",
          "name": "amount",
          "type": "uint256"
        }
      ],
      "name": "ClaimOrderedWithdraw",
      "type": "event"
    },
    {
      "anonymous": false,
      "inputs": [
        {
          "indexed": true,
          "internalType": "address",
          "name": "dst",
          "type": "address"
        },
        {
          "indexed": false,
          "internalType": "uint256",
          "name": "wad",
          "type": "uint256"
        },
        {
          "indexed": false,
          "internalType": "uint256",
          "name": "old",
          "type": "uint256"
        }
      ],
      "name": "Deposit",
      "type": "event"
    },
    {
      "anonymous": false,
      "inputs": [
        {
          "indexed": true,
          "internalType": "address",
          "name": "poolAddress",
          "type": "address"
        },
        {
          "indexed": false,
          "internalType": "int256",
          "name": "amount",
          "type": "int256"
        }
      ],
      "name": "OrderWithdraw",
      "type": "event"
    },
    {
      "anonymous": false,
      "inputs": [
        {
          "indexed": true,
          "internalType": "address",
          "name": "poolAddress",
          "type": "address"
        },
        {
          "indexed": false,
          "internalType": "uint256",
          "name": "amount",
          "type": "uint256"
        }
      ],
      "name": "PoolWithdraw",
      "type": "event"
    },
    {
      "anonymous": false,
      "inputs": [
        {
          "indexed": false,
          "internalType": "address",
          "name": "pool",
          "type": "address"
        }
      ],
      "name": "RemovePool",
      "type": "event"
    },
    {
      "anonymous": false,
      "inputs": [
        {
          "indexed": false,
          "internalType": "address",
          "name": "proposedAdmin",
          "type": "address"
        }
      ],
      "name": "SetProposedAdmin",
      "type": "event"
    },
    {
      "anonymous": false,
      "inputs": [
        {
          "indexed": false,
          "internalType": "address",
          "name": "oldStakingAuRa",
          "type": "address"
        },
        {
          "indexed": false,
          "internalType": "address",
          "name": "newStakingAuRa",
          "type": "address"
        }
      ],
      "name": "SetStakingAuRa",
      "type": "event"
    },
    {
      "anonymous": false,
      "inputs": [
        {
          "indexed": true,
          "internalType": "address",
          "name": "src",
          "type": "address"
        },
        {
          "indexed": true,
          "internalType": "address",
          "name": "dst",
          "type": "address"
        },
        {
          "indexed": false,
          "internalType": "uint256",
          "name": "wad",
          "type": "uint256"
        }
      ],
      "name": "Transfer",
      "type": "event"
    },
    {
      "anonymous": false,
      "inputs": [
        {
          "indexed": true,
          "internalType": "address",
          "name": "src",
          "type": "address"
        },
        {
          "indexed": false,
          "internalType": "uint256",
          "name": "wad",
          "type": "uint256"
        }
      ],
      "name": "Withdrawal",
      "type": "event"
    },
    {
      "stateMutability": "payable",
      "type": "fallback"
    },
    {
      "inputs": [
        {
          "internalType": "address",
          "name": "_pool",
          "type": "address"
        }
      ],
      "name": "addPool",
      "outputs": [],
      "stateMutability": "nonpayable",
      "type": "function"
    },
    {
      "inputs": [],
      "name": "admin",
      "outputs": [
        {
          "internalType": "address",
          "name": "",
          "type": "address"
        }
      ],
      "stateMutability": "view",
      "type": "function"
    },
    {
      "inputs": [],
      "name": "airdrop",
      "outputs": [],
      "stateMutability": "payable",
      "type": "function"
    },
    {
      "inputs": [
        {
          "internalType": "address",
          "name": "",
          "type": "address"
        },
        {
          "internalType": "address",
          "name": "",
          "type": "address"
        }
      ],
      "name": "allowance",
      "outputs": [
        {
          "internalType": "uint256",
          "name": "",
          "type": "uint256"
        }
      ],
      "stateMutability": "view",
      "type": "function"
    },
    {
      "inputs": [
        {
          "internalType": "address",
          "name": "guy",
          "type": "address"
        },
        {
          "internalType": "uint256",
          "name": "wad",
          "type": "uint256"
        }
      ],
      "name": "approve",
      "outputs": [
        {
          "internalType": "bool",
          "name": "",
          "type": "bool"
        }
      ],
      "stateMutability": "nonpayable",
      "type": "function"
    },
    {
      "inputs": [
        {
          "internalType": "address",
          "name": "",
          "type": "address"
        }
      ],
      "name": "balanceOf",
      "outputs": [
        {
          "internalType": "uint256",
          "name": "",
          "type": "uint256"
        }
      ],
      "stateMutability": "view",
      "type": "function"
    },
    {
      "inputs": [
        {
          "internalType": "address",
          "name": "owner",
          "type": "address"
        }
      ],
      "name": "balanceOfUnderlying",
      "outputs": [
        {
          "internalType": "uint256",
          "name": "",
          "type": "uint256"
        }
      ],
      "stateMutability": "view",
      "type": "function"
    },
    {
      "inputs": [],
      "name": "claimAdmin",
      "outputs": [],
      "stateMutability": "nonpayable",
      "type": "function"
    },
    {
      "inputs": [],
      "name": "decimals",
      "outputs": [
        {
          "internalType": "uint8",
          "name": "",
          "type": "uint8"
        }
      ],
      "stateMutability": "view",
      "type": "function"
    },
    {
      "inputs": [],
      "name": "deposit",
      "outputs": [],
      "stateMutability": "payable",
      "type": "function"
    },
    {
      "inputs": [],
      "name": "exchangeRate",
      "outputs": [
        {
          "internalType": "uint256",
          "name": "",
          "type": "uint256"
        }
      ],
      "stateMutability": "view",
      "type": "function"
    },
    {
      "inputs": [],
      "name": "getLocalRedeemable",
      "outputs": [
        {
          "internalType": "uint256",
          "name": "",
          "type": "uint256"
        }
      ],
      "stateMutability": "view",
      "type": "function"
    },
    {
      "inputs": [],
      "name": "getPoolTotalBalance",
      "outputs": [
        {
          "internalType": "uint256",
          "name": "res",
          "type": "uint256"
        }
      ],
      "stateMutability": "view",
      "type": "function"
    },
    {
      "inputs": [],
      "name": "getPoolsStaked",
      "outputs": [
        {
          "internalType": "address[]",
          "name": "pool",
          "type": "address[]"
        },
        {
          "internalType": "uint256[]",
          "name": "stake",
          "type": "uint256[]"
        }
      ],
      "stateMutability": "view",
      "type": "function"
    },
    {
      "inputs": [],
      "name": "getStakedPools",
      "outputs": [
        {
          "internalType": "address[]",
          "name": "pool",
          "type": "address[]"
        }
      ],
      "stateMutability": "view",
      "type": "function"
    },
    {
      "inputs": [
        {
          "internalType": "uint256",
          "name": "index",
          "type": "uint256"
        }
      ],
      "name": "getStakingPool",
      "outputs": [
        {
          "internalType": "address",
          "name": "",
          "type": "address"
        }
      ],
      "stateMutability": "view",
      "type": "function"
    },
    {
      "inputs": [],
      "name": "getTotalStaked",
      "outputs": [
        {
          "internalType": "uint256",
          "name": "res",
          "type": "uint256"
        }
      ],
      "stateMutability": "view",
      "type": "function"
    },
    {
      "inputs": [],
      "name": "getTotalWithdrawable",
      "outputs": [
        {
          "internalType": "uint256",
          "name": "res",
          "type": "uint256"
        }
      ],
      "stateMutability": "view",
      "type": "function"
    },
    {
      "inputs": [],
      "name": "initialize",
      "outputs": [],
      "stateMutability": "nonpayable",
      "type": "function"
    },
    {
      "inputs": [],
      "name": "name",
      "outputs": [
        {
          "internalType": "string",
          "name": "",
          "type": "string"
        }
      ],
      "stateMutability": "view",
      "type": "function"
    },
    {
      "inputs": [],
      "name": "orderedAmount",
      "outputs": [
        {
          "internalType": "address[]",
          "name": "_pools",
          "type": "address[]"
        },
        {
          "internalType": "uint256[]",
          "name": "_amount",
          "type": "uint256[]"
        },
        {
          "internalType": "uint256[]",
          "name": "_claimableBlock",
          "type": "uint256[]"
        }
      ],
      "stateMutability": "view",
      "type": "function"
    },
    {
      "inputs": [],
      "name": "poolIndex",
      "outputs": [
        {
          "internalType": "uint256",
          "name": "",
          "type": "uint256"
        }
      ],
      "stateMutability": "view",
      "type": "function"
    },
    {
      "inputs": [],
      "name": "proposedAdmin",
      "outputs": [
        {
          "internalType": "address",
          "name": "",
          "type": "address"
        }
      ],
      "stateMutability": "view",
      "type": "function"
    },
    {
      "inputs": [
        {
          "internalType": "address",
          "name": "_pool",
          "type": "address"
        }
      ],
      "name": "remove",
      "outputs": [],
      "stateMutability": "nonpayable",
      "type": "function"
    },
    {
      "inputs": [
        {
          "internalType": "address",
          "name": "_proposedAdmin",
          "type": "address"
        }
      ],
      "name": "setProposedAdmin",
      "outputs": [],
      "stateMutability": "nonpayable",
      "type": "function"
    },
    {
      "inputs": [
        {
          "internalType": "address",
          "name": "_stakingAuRa",
          "type": "address"
        }
      ],
      "name": "setStakingAuRa",
      "outputs": [],
      "stateMutability": "nonpayable",
      "type": "function"
    },
    {
      "inputs": [],
      "name": "stakingAuRa",
      "outputs": [
        {
          "internalType": "contract IStakingAuRa",
          "name": "",
          "type": "address"
        }
      ],
      "stateMutability": "view",
      "type": "function"
    },
    {
      "inputs": [],
      "name": "symbol",
      "outputs": [
        {
          "internalType": "string",
          "name": "",
          "type": "string"
        }
      ],
      "stateMutability": "view",
      "type": "function"
    },
    {
      "inputs": [],
      "name": "totalSupply",
      "outputs": [
        {
          "internalType": "uint256",
          "name": "",
          "type": "uint256"
        }
      ],
      "stateMutability": "view",
      "type": "function"
    },
    {
      "inputs": [
        {
          "internalType": "address",
          "name": "dst",
          "type": "address"
        },
        {
          "internalType": "uint256",
          "name": "wad",
          "type": "uint256"
        }
      ],
      "name": "transfer",
      "outputs": [
        {
          "internalType": "bool",
          "name": "",
          "type": "bool"
        }
      ],
      "stateMutability": "nonpayable",
      "type": "function"
    },
    {
      "inputs": [
        {
          "internalType": "address",
          "name": "src",
          "type": "address"
        },
        {
          "internalType": "address",
          "name": "dst",
          "type": "address"
        },
        {
          "internalType": "uint256",
          "name": "wad",
          "type": "uint256"
        }
      ],
      "name": "transferFrom",
      "outputs": [
        {
          "internalType": "bool",
          "name": "",
          "type": "bool"
        }
      ],
      "stateMutability": "nonpayable",
      "type": "function"
    },
    {
      "inputs": [
        {
          "internalType": "uint256",
          "name": "wad",
          "type": "uint256"
        }
      ],
      "name": "withdraw",
      "outputs": [
        {
          "internalType": "uint256",
          "name": "",
          "type": "uint256"
        }
      ],
      "stateMutability": "nonpayable",
      "type": "function"
    },
    {
      "stateMutability": "payable",
      "type": "receive"
    }
  ],
  "transactionHash": "0xfe70183651b70a3d889b20eaff21e117eec3eaa9a7324a80f6d55665fe658f33",
  "args": [],
  "solcInputHash": "bfa20d26bd8576deca4b5e1af0ba47f8",
  "bytecode": "0x608060405234801561001057600080fd5b5060018055613240806100246000396000f3fe6080604052600436106101e75760003560e01c80636f0a6f5611610102578063a2b44d7511610095578063d914cd4b11610064578063d914cd4b146107ec578063dc821e401461081f578063dd62ed3e14610834578063f851a4401461086f576101ee565b8063a2b44d751461068e578063a9059cbb146106b8578063ab146823146106f1578063d0e30db0146107e4576101ee565b80637f7dfedd116100d15780637f7dfedd1461061c5780638129fc1c14610631578063880dd18e1461064657806395d89b4114610679576101ee565b80636f0a6f561461058c5780636f50539f146105a157806370a08231146105d457806377f50f9714610607576101ee565b80632e1a7d4d1161017a5780633af9e669116101495780633af9e669146104815780633ba0b9a9146104b45780634ce272ee146104c95780636c15d9dc146104de576101ee565b80632e1a7d4d146103f3578063313ce5671461041d57806332f751ec146104485780633884d63514610479576101ee565b806318160ddd116101b657806318160ddd146103035780631e16d47d1461031857806323b872dd1461037d57806329092d0e146103c0576101ee565b806306fdde03146101f05780630917e7761461027a578063095ea7b3146102a15780630dc07a3e146102ee576101ee565b366101ee57005b005b3480156101fc57600080fd5b50610205610884565b6040805160208082528351818301528351919283929083019185019080838360005b8381101561023f578181015183820152602001610227565b50505050905090810190601f16801561026c5780820380516001836020036101000a031916815260200191505b509250505060405180910390f35b34801561028657600080fd5b5061028f61090f565b60408051918252519081900360200190f35b3480156102ad57600080fd5b506102da600480360360408110156102c457600080fd5b506001600160a01b0381351690602001356109d8565b604080519115158252519081900360200190f35b3480156102fa57600080fd5b5061028f610a3f565b34801561030f57600080fd5b5061028f610b32565b34801561032457600080fd5b5061032d610b39565b60408051602080825283518183015283519192839290830191858101910280838360005b83811015610369578181015183820152602001610351565b505050509050019250505060405180910390f35b34801561038957600080fd5b506102da600480360360608110156103a057600080fd5b506001600160a01b03813581169160208101359091169060400135610d4b565b3480156103cc57600080fd5b506101ee600480360360208110156103e357600080fd5b50356001600160a01b0316610e7f565b3480156103ff57600080fd5b5061028f6004803603602081101561041657600080fd5b5035610f1a565b34801561042957600080fd5b50610432611793565b6040805160ff9092168252519081900360200190f35b34801561045457600080fd5b5061045d61179c565b604080516001600160a01b039092168252519081900360200190f35b6101ee6117ab565b34801561048d57600080fd5b5061028f600480360360208110156104a457600080fd5b50356001600160a01b03166117ad565b3480156104c057600080fd5b5061028f6117ed565b3480156104d557600080fd5b5061028f61184e565b3480156104ea57600080fd5b506104f3611854565b604051808060200180602001838103835285818151815260200191508051906020019060200280838360005b8381101561053757818101518382015260200161051f565b50505050905001838103825284818151815260200191508051906020019060200280838360005b8381101561057657818101518382015260200161055e565b5050505090500194505050505060405180910390f35b34801561059857600080fd5b5061028f6119ec565b3480156105ad57600080fd5b506101ee600480360360208110156105c457600080fd5b50356001600160a01b0316611af2565b3480156105e057600080fd5b5061028f600480360360208110156105f757600080fd5b50356001600160a01b0316611baf565b34801561061357600080fd5b506101ee611bc1565b34801561062857600080fd5b5061028f611c87565b34801561063d57600080fd5b506101ee611c96565b34801561065257600080fd5b506101ee6004803603602081101561066957600080fd5b50356001600160a01b0316611dd4565b34801561068557600080fd5b50610205611e7e565b34801561069a57600080fd5b5061045d600480360360208110156106b157600080fd5b5035611ed9565b3480156106c457600080fd5b506102da600480360360408110156106db57600080fd5b506001600160a01b038135169060200135611ee6565b3480156106fd57600080fd5b50610706611efa565b60405180806020018060200180602001848103845287818151815260200191508051906020019060200280838360005b8381101561074e578181015183820152602001610736565b50505050905001848103835286818151815260200191508051906020019060200280838360005b8381101561078d578181015183820152602001610775565b50505050905001848103825285818151815260200191508051906020019060200280838360005b838110156107cc5781810151838201526020016107b4565b50505050905001965050505050505060405180910390f35b6101ee61228d565b3480156107f857600080fd5b506101ee6004803603602081101561080f57600080fd5b50356001600160a01b031661265f565b34801561082b57600080fd5b5061045d6128c4565b34801561084057600080fd5b5061028f6004803603604081101561085757600080fd5b506001600160a01b03813581169160200135166128d8565b34801561087b57600080fd5b5061045d6128f5565b6002805460408051602060018416156101000260001901909316849004601f810184900484028201840190925281815292918301828280156109075780601f106108dc57610100808354040283529160200191610907565b820191906000526020600020905b8154815290600101906020018083116108ea57829003601f168201915b505050505081565b6000805b61091d6007612904565b8110156109d4576004546109ca9061010090046001600160a01b031663a697ecff61094960078561290f565b306040518363ffffffff1660e01b815260040180836001600160a01b03168152602001826001600160a01b031681526020019250505060206040518083038186803b15801561099757600080fd5b505afa1580156109ab573d6000803e3d6000fd5b505050506040513d60208110156109c157600080fd5b5051839061291b565b9150600101610913565b5090565b336000818152600c602090815260408083206001600160a01b038716808552908352818420869055815186815291519394909390927f8c5be1e5ebec7d5bd14f71427d1e84f3dd0314c0f7b2291e5b200ac8c7c3b925928290030190a35060015b92915050565b60045460009061010090046001600160a01b0316815b610a5f6007612904565b811015610b2d57610b046001600160a01b03831663e9ab0300610a8360078561290f565b306040518363ffffffff1660e01b815260040180836001600160a01b03168152602001826001600160a01b031681526020019250505060206040518083038186803b158015610ad157600080fd5b505afa158015610ae5573d6000803e3d6000fd5b505050506040513d6020811015610afb57600080fd5b5051849061291b565b9250610b236001600160a01b03831663a697ecff610a8360078561290f565b9250600101610a55565b505090565b600a545b90565b60045460609060009061010090046001600160a01b0316815b610b5c6007612904565b811015610c0e5760006001600160a01b03831663a697ecff610b7f60078561290f565b306040518363ffffffff1660e01b815260040180836001600160a01b03168152602001826001600160a01b031681526020019250505060206040518083038186803b158015610bcd57600080fd5b505afa158015610be1573d6000803e3d6000fd5b505050506040513d6020811015610bf757600080fd5b50511115610c06576001909201915b600101610b52565b508167ffffffffffffffff81118015610c2657600080fd5b50604051908082528060200260200182016040528015610c50578160200160208202803683370190505b5092506000805b610c616007612904565b811015610d445760006001600160a01b03841663a697ecff610c8460078561290f565b306040518363ffffffff1660e01b815260040180836001600160a01b03168152602001826001600160a01b031681526020019250505060206040518083038186803b158015610cd257600080fd5b505afa158015610ce6573d6000803e3d6000fd5b505050506040513d6020811015610cfc57600080fd5b50511115610d3c57610d0f60078261290f565b858381518110610d1b57fe5b60200260200101906001600160a01b031690816001600160a01b0316815250505b600101610c57565b5050505090565b6001600160a01b0383166000908152600b6020526040812054821115610d7057600080fd5b6001600160a01b0384163314801590610dae57506001600160a01b0384166000908152600c6020908152604080832033845290915290205460001914155b15610e0e576001600160a01b0384166000908152600c60209081526040808320338452909152902054821115610de357600080fd5b6001600160a01b0384166000908152600c602090815260408083203384529091529020805483900390555b6001600160a01b038085166000818152600b6020908152604080832080548890039055938716808352918490208054870190558351868152935191937fddf252ad1be2c89b69c2b068fc378daa952ba7f163c4a11628f55a4df523b3ef929081900390910190a35060019392505050565b6005546001600160a01b03163314610ecf576040805162461bcd60e51b815260206004820152600e60248201526d10591b5a5b881c995c5d5a5c995960921b604482015290519081900360640190fd5b610eda600782612975565b50604080516001600160a01b038316815290517f0719c8bc6522957e7735717af2894124fbc9096cf04b5bfaabcff515779087659181900360200190a150565b600060026001541415610f74576040805162461bcd60e51b815260206004820152601f60248201527f5265656e7472616e637947756172643a207265656e7472616e742063616c6c00604482015290519081900360640190fd5b6002600155610f9c610f846117ed565b610f9684670de0b6b3a764000061298a565b906129e3565b336000908152600b60205260409020541015610ff6576040805162461bcd60e51b8152602060048201526014602482015273496e73756666696369656e742062616c616e636560601b604482015290519081900360640190fd5b600047838110801561107e5750600460019054906101000a90046001600160a01b03166001600160a01b031663f49425016040518163ffffffff1660e01b815260040160206040518083038186803b15801561105157600080fd5b505afa158015611065573d6000803e3d6000fd5b505050506040513d602081101561107b57600080fd5b50515b156116cb5760045461010090046001600160a01b03166000805b6110a26007612904565b81101561117d576110b460078261290f565b915060006110c183612a25565b9050801561117457836001600160a01b031663cfef1441846040518263ffffffff1660e01b815260040180826001600160a01b03168152602001915050600060405180830381600087803b15801561111857600080fd5b505af115801561112c573d6000803e3d6000fd5b5050604080518481529051600199506001600160a01b03871693507f4340c7ff2cdebed2d56e70d56d91830025340d6a370e41d6e0417737147340b092509081900360200190a25b50600101611098565b504792506000868410156113ba576000836001600160a01b031663da7a9b6a6040518163ffffffff1660e01b815260040160206040518083038186803b1580156111c657600080fd5b505afa1580156111da573d6000803e3d6000fd5b505050506040513d60208110156111f057600080fd5b50519050600080805b6112036007612904565b8110156113b557878b11611218576000611222565b6112228b89612bbc565b94508461122e576113b5565b61123960078261290f565b9550866001600160a01b0316636bda157787306040518363ffffffff1660e01b815260040180836001600160a01b03168152602001826001600160a01b031681526020019250505060206040518083038186803b15801561129957600080fd5b505afa1580156112ad573d6000803e3d6000fd5b505050506040513d60208110156112c357600080fd5b5051915081156113ad578482101580156112e65750836112e38387612bbc565b10155b156112f3578492506112f7565b8192505b866001600160a01b031663f3fef3a387856040518363ffffffff1660e01b815260040180836001600160a01b0316815260200182815260200192505050600060405180830381600087803b15801561134e57600080fd5b505af1158015611362573d6000803e3d6000fd5b505060408051868152905160019c506001600160a01b038a1693507f61a0b4d879cd5e5653631acae542581573d52905e66efcbb6246efca1ef306d692509081900360200190a24797505b6001016111f9565b505050505b479350868410156116c75760006113d16007612904565b90506000805b8281101561148c5760006001600160a01b03871663e9ab03006113fb60078561290f565b306040518363ffffffff1660e01b815260040180836001600160a01b03168152602001826001600160a01b031681526020019250505060206040518083038186803b15801561144957600080fd5b505afa15801561145d573d6000803e3d6000fd5b505050506040513d602081101561147357600080fd5b50519050611481838261291b565b9250506001016113d7565b50888110156116c4576000856001600160a01b031663da7a9b6a6040518163ffffffff1660e01b815260040160206040518083038186803b1580156114d057600080fd5b505afa1580156114e4573d6000803e3d6000fd5b505050506040513d60208110156114fa57600080fd5b50519050600080805b61150d6007612904565b8110156116bf57898d1161152257600061152c565b61152c8d8b612bbc565b965086611538576116bf565b61154360078261290f565b9750886001600160a01b031663950a651389306040518363ffffffff1660e01b815260040180836001600160a01b03168152602001826001600160a01b031681526020019250505060206040518083038186803b1580156115a357600080fd5b505afa1580156115b7573d6000803e3d6000fd5b505050506040513d60208110156115cd57600080fd5b5051915081156116b7578682101580156115f05750836115ed8389612bbc565b10155b156115fd57869250611601565b8192505b886001600160a01b031663b61ed63a89856040518363ffffffff1660e01b815260040180836001600160a01b0316815260200182815260200192505050600060405180830381600087803b15801561165857600080fd5b505af115801561166c573d6000803e3d6000fd5b505060408051868152905160019e506001600160a01b038c1693507f828b8af32701298b029bfa3492ac3772c520d2924fc977b0ca3220625fca4e9c92509081900360200190a24799505b600101611503565b505050505b50505b5050505b504760006116d98583612bfe565b9050801561170a5760006116ee610f846117ed565b90506116fa3382612c14565b600193506117083383612d0b565b505b82611751576040805162461bcd60e51b81526020600482015260126024820152711b9bc81858dd1a5bdb88195e1958dd5d195960721b604482015290519081900360640190fd5b60408051828152905133917f7fcf532c15f0a6db0bd6d0e038bea71d30d808c7d98cb3bf7268a95bf5081b65919081900360200190a260018055949350505050565b60045460ff1681565b6006546001600160a01b031681565b565b60006117e5670de0b6b3a7640000610f966117c66117ed565b6001600160a01b0386166000908152600b60205260409020549061298a565b90505b919050565b6000600a54600014156118095750670de0b6b3a7640000610b36565b6000611813612d77565b9050600061181f610a3f565b600a5490915061184590610f96670de0b6b3a764000061183f858761291b565b9061298a565b92505050610b36565b60095481565b600454606090819061010090046001600160a01b031660006118766007612904565b90508067ffffffffffffffff8111801561188f57600080fd5b506040519080825280602002602001820160405280156118b9578160200160208202803683370190505b5093508067ffffffffffffffff811180156118d357600080fd5b506040519080825280602002602001820160405280156118fd578160200160208202803683370190505b50925060005b818110156119e55761191660078261290f565b85828151811061192257fe5b6001600160a01b039283166020918202929092010152831663a697ecff61194a60078461290f565b306040518363ffffffff1660e01b815260040180836001600160a01b03168152602001826001600160a01b031681526020019250505060206040518083038186803b15801561199857600080fd5b505afa1580156119ac573d6000803e3d6000fd5b505050506040513d60208110156119c257600080fd5b505184518590839081106119d257fe5b6020908102919091010152600101611903565b5050509091565b60006119f6611c87565b9050600080805b611a076007612904565b811015611aec57611a1960078261290f565b9150611ac4600460019054906101000a90046001600160a01b03166001600160a01b0316636bda157784306040518363ffffffff1660e01b815260040180836001600160a01b03168152602001826001600160a01b031681526020019250505060206040518083038186803b158015611a9157600080fd5b505afa158015611aa5573d6000803e3d6000fd5b505050506040513d6020811015611abb57600080fd5b5051859061291b565b9350611acf82612a25565b92508215611ae457611ae1848461291b565b93505b6001016119fd565b50505090565b6005546001600160a01b03163314611b42576040805162461bcd60e51b815260206004820152600e60248201526d10591b5a5b881c995c5d5a5c995960921b604482015290519081900360640190fd5b600480546001600160a01b03838116610100818102610100600160a81b03198516179094556040805194909304919091168084526020840191909152815190927ffdc27664084fea27b5efcdf406298bb23454f212a4e72b4ef90c6c77ff2a934a92908290030190a15050565b600b6020526000908152604090205481565b6006546001600160a01b03163314611c19576040805162461bcd60e51b8152602060048201526016602482015275141c9bdc1bdcd95910591b5a5b881c995c5d5a5c995960521b604482015290519081900360640190fd5b60058054600680546001600160a01b03198084166001600160a01b03838116919091179586905591169091556040805192821680845293909116602083015280517f60cae9fabd3bef6b015e14f55d6c66df6c507bbacdb16149e2bf7c440690da279281900390910190a150565b6000611c91612d77565b905090565b600054610100900460ff1680611caf5750611caf612d9a565b80611cbd575060005460ff16155b611cf85760405162461bcd60e51b815260040180806020018281038252602e8152602001806131bc602e913960400191505060405180910390fd5b600054610100900460ff16158015611d23576000805460ff1961ff0019909116610100171660011790555b600580546001600160a01b0319163317905560408051808201909152600d8082526c5374616b696e672056656c617360981b6020909201918252611d69916002916130cc565b50604080518082019091526004808252630a6ac98b60e31b6020909201918252611d95916003916130cc565b50600480546000600955601260ff1990911617610100600160a81b031916610100601160a01b011790558015611dd1576000805461ff00191690555b50565b6005546001600160a01b03163314611e24576040805162461bcd60e51b815260206004820152600e60248201526d10591b5a5b881c995c5d5a5c995960921b604482015290519081900360640190fd5b600680546001600160a01b0319166001600160a01b03838116919091179182905560408051929091168252517f2c4244392c58c5683fb627aa721711e3d9fbd95b3c5c6d865e7ca955dcb874a1916020908290030190a150565b6003805460408051602060026001851615610100026000190190941693909304601f810184900484028201840190925281815292918301828280156109075780601f106108dc57610100808354040283529160200191610907565b60006117e560078361290f565b6000611ef3338484610d4b565b9392505050565b60608060606000600460019054906101000a90046001600160a01b031690506000816001600160a01b031663794c0c686040518163ffffffff1660e01b815260040160206040518083038186803b158015611f5457600080fd5b505afa158015611f68573d6000803e3d6000fd5b505050506040513d6020811015611f7e57600080fd5b505190506000611f8e6007612904565b90508067ffffffffffffffff81118015611fa757600080fd5b50604051908082528060200260200182016040528015611fd1578160200160208202803683370190505b5095508067ffffffffffffffff81118015611feb57600080fd5b50604051908082528060200260200182016040528015612015578160200160208202803683370190505b5094508067ffffffffffffffff8111801561202f57600080fd5b50604051908082528060200260200182016040528015612059578160200160208202803683370190505b50935060005b818110156122845760006001600160a01b03851663e9ab030061208360078561290f565b306040518363ffffffff1660e01b815260040180836001600160a01b03168152602001826001600160a01b031681526020019250505060206040518083038186803b1580156120d157600080fd5b505afa1580156120e5573d6000803e3d6000fd5b505050506040513d60208110156120fb57600080fd5b5051905061210a60078361290f565b88838151811061211657fe5b60200260200101906001600160a01b031690816001600160a01b0316815250508087838151811061214357fe5b60209081029190910101526001600160a01b03851663a420596761216860078561290f565b306040518363ffffffff1660e01b815260040180836001600160a01b03168152602001826001600160a01b031681526020019250505060206040518083038186803b1580156121b657600080fd5b505afa1580156121ca573d6000803e3d6000fd5b505050506040513d60208110156121e057600080fd5b5051841480156121f05750600081115b1561227b57846001600160a01b0316638c2243ae6040518163ffffffff1660e01b815260040160206040518083038186803b15801561222e57600080fd5b505afa158015612242573d6000803e3d6000fd5b505050506040513d602081101561225857600080fd5b5051865160019091019087908490811061226e57fe5b6020026020010181815250505b5060010161205f565b50505050909192565b600260015414156122e5576040805162461bcd60e51b815260206004820152601f60248201527f5265656e7472616e637947756172643a207265656e7472616e742063616c6c00604482015290519081900360640190fd5b600260015534612334576040805162461bcd60e51b8152602060048201526015602482015274416d6f756e742063616e6e6f74206265207a65726f60581b604482015290519081900360640190fd5b600061234c600954600761290f90919063ffffffff16565b90506001600160a01b0381166123a0576040805162461bcd60e51b8152602060048201526014602482015273506f6f6c206973207a65726f206164647265737360601b604482015290519081900360640190fd5b60006123bf6123ad6117ed565b610f9634670de0b6b3a764000061298a565b90506123cb3382612da0565b476123d66007612904565b600954600101816123e357fe5b06600981905550600460019054906101000a90046001600160a01b03166001600160a01b031663f49425016040518163ffffffff1660e01b815260040160206040518083038186803b15801561243857600080fd5b505afa15801561244c573d6000803e3d6000fd5b505050506040513d602081101561246257600080fd5b5051801561259157506000600460019054906101000a90046001600160a01b03166001600160a01b031663a697ecff85306040518363ffffffff1660e01b815260040180836001600160a01b03168152602001826001600160a01b031681526020019250505060206040518083038186803b1580156124e057600080fd5b505afa1580156124f4573d6000803e3d6000fd5b505050506040513d602081101561250a57600080fd5b505111806125915750600460019054906101000a90046001600160a01b03166001600160a01b031663da7a9b6a6040518163ffffffff1660e01b815260040160206040518083038186803b15801561256157600080fd5b505afa158015612575573d6000803e3d6000fd5b505050506040513d602081101561258b57600080fd5b50518110155b1561261c57600460019054906101000a90046001600160a01b03166001600160a01b031663adc9772e8285846040518463ffffffff1660e01b815260040180836001600160a01b03168152602001828152602001925050506000604051808303818588803b15801561260257600080fd5b505af1158015612616573d6000803e3d6000fd5b50505050505b6040805183815260208101839052815133927f90890809c654f11d6e72a28fa60149770a0d11ec6c92319d6ceb2bb0a4ea1a15928290030190a250506001805550565b6005546001600160a01b031633146126af576040805162461bcd60e51b815260206004820152600e60248201526d10591b5a5b881c995c5d5a5c995960921b604482015290519081900360640190fd5b60006060600460019054906101000a90046001600160a01b03166001600160a01b031663673a2a1f6040518163ffffffff1660e01b815260040160006040518083038186803b15801561270157600080fd5b505afa158015612715573d6000803e3d6000fd5b505050506040513d6000823e601f3d908101601f19168201604052602081101561273e57600080fd5b810190808051604051939291908464010000000082111561275e57600080fd5b90830190602082018581111561277357600080fd5b825186602082028301116401000000008211171561279057600080fd5b82525081516020918201928201910280838360005b838110156127bd5781810151838201526020016127a5565b50505050905001604052505050905060005b815181101561282857836001600160a01b03168282815181106127ee57fe5b60200260200101516001600160a01b031614156128205781818151811061281157fe5b60200260200101519250612828565b6001016127cf565b506001600160a01b038216612877576040805162461bcd60e51b815260206004820152601060248201526f125b9d985b1a59081b995dc81c1bdbdb60821b604482015290519081900360640190fd5b612882600783612e2b565b50604080516001600160a01b038416815290517f8c82d670bc9247c2cfb6964089bc9cff0255f9caade6fbc74a13368083e554669181900360200190a1505050565b60045461010090046001600160a01b031681565b600c60209081526000928352604080842090915290825290205481565b6005546001600160a01b031681565b60006117e582612e40565b6000611ef38383612e44565b600082820183811015611ef3576040805162461bcd60e51b815260206004820152601b60248201527f536166654d6174683a206164646974696f6e206f766572666c6f770000000000604482015290519081900360640190fd5b6000611ef3836001600160a01b038416612ea8565b60008261299957506000610a39565b828202828482816129a657fe5b0414611ef35760405162461bcd60e51b81526004018080602001828103825260218152602001806131ea6021913960400191505060405180910390fd5b6000611ef383836040518060400160405280601a81526020017f536166654d6174683a206469766973696f6e206279207a65726f000000000000815250612f6e565b600080600460019054906101000a90046001600160a01b031690506000816001600160a01b031663794c0c686040518163ffffffff1660e01b815260040160206040518083038186803b158015612a7b57600080fd5b505afa158015612a8f573d6000803e3d6000fd5b505050506040513d6020811015612aa557600080fd5b50516040805163a420596760e01b81526001600160a01b03878116600483015230602483015291519293509084169163a420596791604480820192602092909190829003018186803b158015612afa57600080fd5b505afa158015612b0e573d6000803e3d6000fd5b505050506040513d6020811015612b2457600080fd5b5051811115612bb2576040805162e9ab0360e81b81526001600160a01b03868116600483015230602483015291519184169163e9ab030091604480820192602092909190829003018186803b158015612b7c57600080fd5b505afa158015612b90573d6000803e3d6000fd5b505050506040513d6020811015612ba657600080fd5b505192506117e8915050565b5060009392505050565b6000611ef383836040518060400160405280601e81526020017f536166654d6174683a207375627472616374696f6e206f766572666c6f770000815250613010565b6000818310612c0d5781611ef3565b5090919050565b6001600160a01b0382166000908152600b6020526040902054811115612c81576040805162461bcd60e51b815260206004820152601c60248201527f6275726e20616d6f756e7420657863656564732062616c616e63652700000000604482015290519081900360640190fd5b600a54612c8e9082612bbc565b600a556001600160a01b0382166000908152600b6020526040902054612cb49082612bbc565b6001600160a01b0383166000818152600b60209081526040808320949094558351858152935191937fddf252ad1be2c89b69c2b068fc378daa952ba7f163c4a11628f55a4df523b3ef929081900390910190a35050565b6040516001600160a01b0383169082156108fc029083906000818181858888f19350505050612d73578082604051612d4290613146565b6001600160a01b039091168152604051908190036020019082f0905080158015612d70573d6000803e3d6000fd5b50505b5050565b600034471115612d9257612d8b4734612bbc565b9050610b36565b506000610b36565b303b1590565b600a54612dad908261291b565b600a556001600160a01b0382166000908152600b6020526040902054612dd3908261291b565b6001600160a01b0383166000818152600b602090815260408083209490945583518581529351929391927fddf252ad1be2c89b69c2b068fc378daa952ba7f163c4a11628f55a4df523b3ef9281900390910190a35050565b6000611ef3836001600160a01b03841661306a565b5490565b81546000908210612e865760405162461bcd60e51b815260040180806020018281038252602281526020018061319a6022913960400191505060405180910390fd5b826000018281548110612e9557fe5b9060005260206000200154905092915050565b60008181526001830160205260408120548015612f645783546000198083019190810190600090879083908110612edb57fe5b9060005260206000200154905080876000018481548110612ef857fe5b600091825260208083209091019290925582815260018981019092526040902090840190558654879080612f2857fe5b60019003818190600052602060002001600090559055866001016000878152602001908152602001600020600090556001945050505050610a39565b6000915050610a39565b60008183612ffa5760405162461bcd60e51b81526004018080602001828103825283818151815260200191508051906020019080838360005b83811015612fbf578181015183820152602001612fa7565b50505050905090810190601f168015612fec5780820380516001836020036101000a031916815260200191505b509250505060405180910390fd5b50600083858161300657fe5b0495945050505050565b600081848411156130625760405162461bcd60e51b8152602060048201818152835160248401528351909283926044909101919085019080838360008315612fbf578181015183820152602001612fa7565b505050900390565b600061307683836130b4565b6130ac57508154600181810184556000848152602080822090930184905584548482528286019093526040902091909155610a39565b506000610a39565b60009081526001919091016020526040902054151590565b828054600181600116156101000203166002900490600052602060002090601f016020900481019282601f1061310d57805160ff191683800117855561313a565b8280016001018555821561313a579182015b8281111561313a57825182559160200191906001019061311f565b506109d4929150613152565b60328061316883390190565b5b808211156109d4576000815560010161315356fe60806040526040516032380380603283398181016040526020811015602357600080fd5b50516001600160a01b038116fffe456e756d657261626c655365743a20696e646578206f7574206f6620626f756e6473496e697469616c697a61626c653a20636f6e747261637420697320616c726561647920696e697469616c697a6564536166654d6174683a206d756c7469706c69636174696f6e206f766572666c6f77a2646970667358221220f1e00c7472ff784acdb084a842bc44f467756b5299cf9ca6655d2de41466458664736f6c634300060c0033",
  "devdoc": {
    "events": {
      "AddPool(address)": {
        "params": {
          "newPool": "new pool address"
        }
      },
      "ClaimAdmin(address,address)": {
        "params": {
          "newAdmin": "new address",
          "oldAdmin": "old address"
        }
      },
      "ClaimOrderedWithdraw(address,uint256)": {
        "params": {
          "amount": "ordered amount",
          "poolAddress": "pool address"
        }
      },
      "OrderWithdraw(address,int256)": {
        "params": {
          "amount": "amount withdrew",
          "poolAddress": "pool address"
        }
      },
      "PoolWithdraw(address,uint256)": {
        "params": {
          "amount": "amount withdrew",
          "poolAddress": "pool address"
        }
      },
      "RemovePool(address)": {
        "params": {
          "pool": "pool address"
        }
      },
      "SetProposedAdmin(address)": {
        "params": {
          "proposedAdmin": "proposed admin address"
        }
      },
      "SetStakingAuRa(address,address)": {
        "params": {
          "newStakingAuRa": "new address",
          "oldStakingAuRa": "old address"
        }
      }
    },
    "kind": "dev",
    "methods": {
      "addPool(address)": {
        "params": {
          "_pool": "pool address"
        }
      },
      "remove(address)": {
        "params": {
          "_pool": "pool address"
        }
      },
      "setStakingAuRa(address)": {
        "params": {
          "_stakingAuRa": "staking contract address"
        }
      }
    },
    "stateVariables": {
      "_totalSupply": {
        "details": "SVLX token total supply"
      },
      "stakingPools": {
        "details": "Staking pool addresses"
      }
    },
    "version": 1
  },
  "userdoc": {
    "events": {
      "AddPool(address)": {
        "notice": "Event: Add a new staking pool"
      },
      "ClaimAdmin(address,address)": {
        "notice": "Event: Claim admin"
      },
      "ClaimOrderedWithdraw(address,uint256)": {
        "notice": "Event: claim previously ordered tokens"
      },
      "OrderWithdraw(address,int256)": {
        "notice": "Event: withdraw from the ordered tokens"
      },
      "PoolWithdraw(address,uint256)": {
        "notice": "Event: withdraw from the pool"
      },
      "RemovePool(address)": {
        "notice": "Event: Remove a existing staking pool"
      },
      "SetProposedAdmin(address)": {
        "notice": "Event: Set proposed admin"
      },
      "SetStakingAuRa(address,address)": {
        "notice": "Event: Set the staking contract address"
      }
    },
    "kind": "user",
    "methods": {
      "addPool(address)": {
        "notice": "Add a new staking pool"
      },
      "admin()": {
        "notice": "contract admin address"
      },
      "claimAdmin()": {
        "notice": "Claim the admin"
      },
      "deposit()": {
        "notice": "Deposit VLX into VELAS pools and mint SVLX tokens"
      },
      "getLocalRedeemable()": {
        "notice": "Returnt the total amount that can be redeemed by the SVLX holders"
      },
      "getPoolTotalBalance()": {
        "notice": "Get the total amount of VLX in the staking pools, including the staked and ordered amount"
      },
      "getPoolsStaked()": {
        "notice": "Get all the staking pools"
      },
      "getStakedPools()": {
        "notice": "Get the pools where the stake amount is greater than 0"
      },
      "getTotalStaked()": {
        "notice": "Get the amount of total staked VLX"
      },
      "getTotalWithdrawable()": {
        "notice": "Get the total withdrawable amount, including the redeemable balance of the contract, and ordered and unlocked amount in the staking pools."
      },
      "poolIndex()": {
        "notice": "Next pool index"
      },
      "proposedAdmin()": {
        "notice": "Proposed new admin address"
      },
      "remove(address)": {
        "notice": "Remove a staking pool"
      },
      "setStakingAuRa(address)": {
        "notice": "Set the staking contract address"
      },
      "stakingAuRa()": {
        "notice": "VELAS staking contract"
      },
      "withdraw(uint256)": {
        "notice": "Redeem VLX from the stake pools"
      }
    },
    "version": 1
  },
  "storageLayout": {
    "storage": [
      {
        "astId": 2689,
        "contract": "contracts/SVLX.sol:SVLX",
        "label": "_initialized",
        "offset": 0,
        "slot": "0",
        "type": "t_bool"
      },
      {
        "astId": 2692,
        "contract": "contracts/SVLX.sol:SVLX",
        "label": "_initializing",
        "offset": 1,
        "slot": "0",
        "type": "t_bool"
      },
      {
        "astId": 2840,
        "contract": "contracts/SVLX.sol:SVLX",
        "label": "_status",
        "offset": 0,
        "slot": "1",
        "type": "t_uint256"
      },
      {
        "astId": 25,
        "contract": "contracts/SVLX.sol:SVLX",
        "label": "name",
        "offset": 0,
        "slot": "2",
        "type": "t_string_storage"
      },
      {
        "astId": 27,
        "contract": "contracts/SVLX.sol:SVLX",
        "label": "symbol",
        "offset": 0,
        "slot": "3",
        "type": "t_string_storage"
      },
      {
        "astId": 29,
        "contract": "contracts/SVLX.sol:SVLX",
        "label": "decimals",
        "offset": 0,
        "slot": "4",
        "type": "t_uint8"
      },
      {
        "astId": 32,
        "contract": "contracts/SVLX.sol:SVLX",
        "label": "stakingAuRa",
        "offset": 1,
        "slot": "4",
        "type": "t_contract(IStakingAuRa)1996"
      },
      {
        "astId": 35,
        "contract": "contracts/SVLX.sol:SVLX",
        "label": "admin",
        "offset": 0,
        "slot": "5",
        "type": "t_address"
      },
      {
        "astId": 38,
        "contract": "contracts/SVLX.sol:SVLX",
        "label": "proposedAdmin",
        "offset": 0,
        "slot": "6",
        "type": "t_address"
      },
      {
        "astId": 41,
        "contract": "contracts/SVLX.sol:SVLX",
        "label": "stakingPools",
        "offset": 0,
        "slot": "7",
        "type": "t_struct(AddressSet)2467_storage"
      },
      {
        "astId": 44,
        "contract": "contracts/SVLX.sol:SVLX",
        "label": "poolIndex",
        "offset": 0,
        "slot": "9",
        "type": "t_uint256"
      },
      {
        "astId": 47,
        "contract": "contracts/SVLX.sol:SVLX",
        "label": "_totalSupply",
        "offset": 0,
        "slot": "10",
        "type": "t_uint256"
      },
      {
        "astId": 137,
        "contract": "contracts/SVLX.sol:SVLX",
        "label": "balanceOf",
        "offset": 0,
        "slot": "11",
        "type": "t_mapping(t_address,t_uint256)"
      },
      {
        "astId": 143,
        "contract": "contracts/SVLX.sol:SVLX",
        "label": "allowance",
        "offset": 0,
        "slot": "12",
        "type": "t_mapping(t_address,t_mapping(t_address,t_uint256))"
      }
    ],
    "types": {
      "t_address": {
        "encoding": "inplace",
        "label": "address",
        "numberOfBytes": "20"
      },
      "t_array(t_bytes32)dyn_storage": {
        "base": "t_bytes32",
        "encoding": "dynamic_array",
        "label": "bytes32[]",
        "numberOfBytes": "32"
      },
      "t_bool": {
        "encoding": "inplace",
        "label": "bool",
        "numberOfBytes": "1"
      },
      "t_bytes32": {
        "encoding": "inplace",
        "label": "bytes32",
        "numberOfBytes": "32"
      },
      "t_contract(IStakingAuRa)1996": {
        "encoding": "inplace",
        "label": "contract IStakingAuRa",
        "numberOfBytes": "20"
      },
      "t_mapping(t_address,t_mapping(t_address,t_uint256))": {
        "encoding": "mapping",
        "key": "t_address",
        "label": "mapping(address => mapping(address => uint256))",
        "numberOfBytes": "32",
        "value": "t_mapping(t_address,t_uint256)"
      },
      "t_mapping(t_address,t_uint256)": {
        "encoding": "mapping",
        "key": "t_address",
        "label": "mapping(address => uint256)",
        "numberOfBytes": "32",
        "value": "t_uint256"
      },
      "t_mapping(t_bytes32,t_uint256)": {
        "encoding": "mapping",
        "key": "t_bytes32",
        "label": "mapping(bytes32 => uint256)",
        "numberOfBytes": "32",
        "value": "t_uint256"
      },
      "t_string_storage": {
        "encoding": "bytes",
        "label": "string",
        "numberOfBytes": "32"
      },
      "t_struct(AddressSet)2467_storage": {
        "encoding": "inplace",
        "label": "struct EnumerableSet.AddressSet",
        "members": [
          {
            "astId": 2466,
            "contract": "contracts/SVLX.sol:SVLX",
            "label": "_inner",
            "offset": 0,
            "slot": "0",
            "type": "t_struct(Set)2202_storage"
          }
        ],
        "numberOfBytes": "64"
      },
      "t_struct(Set)2202_storage": {
        "encoding": "inplace",
        "label": "struct EnumerableSet.Set",
        "members": [
          {
            "astId": 2197,
            "contract": "contracts/SVLX.sol:SVLX",
            "label": "_values",
            "offset": 0,
            "slot": "0",
            "type": "t_array(t_bytes32)dyn_storage"
          },
          {
            "astId": 2201,
            "contract": "contracts/SVLX.sol:SVLX",
            "label": "_indexes",
            "offset": 0,
            "slot": "1",
            "type": "t_mapping(t_bytes32,t_uint256)"
          }
        ],
        "numberOfBytes": "64"
      },
      "t_uint256": {
        "encoding": "inplace",
        "label": "uint256",
        "numberOfBytes": "32"
      },
      "t_uint8": {
        "encoding": "inplace",
        "label": "uint8",
        "numberOfBytes": "1"
      }
    }
  }
}