{
  "address": "0x94bD0dBD0397e878226dD5219BE0f991c2980C18",
  "abi": [
    {
      "anonymous": false,
      "inputs": [
        {
          "indexed": false,
          "internalType": "address",
          "name": "newPool",
          "type": "address"
        }
      ],
      "name": "AddPool",
      "type": "event"
    },
    {
      "anonymous": false,
      "inputs": [
        {
          "indexed": true,
          "internalType": "address",
          "name": "src",
          "type": "address"
        },
        {
          "indexed": true,
          "internalType": "address",
          "name": "guy",
          "type": "address"
        },
        {
          "indexed": false,
          "internalType": "uint256",
          "name": "wad",
          "type": "uint256"
        }
      ],
      "name": "Approval",
      "type": "event"
    },
    {
      "anonymous": false,
      "inputs": [
        {
          "indexed": false,
          "internalType": "address",
          "name": "oldAdmin",
          "type": "address"
        },
        {
          "indexed": false,
          "internalType": "address",
          "name": "newAdmin",
          "type": "address"
        }
      ],
      "name": "ClaimAdmin",
      "type": "event"
    },
    {
      "anonymous": false,
      "inputs": [
        {
          "indexed": true,
          "internalType": "address",
          "name": "poolAddress",
          "type": "address"
        },
        {
          "indexed": false,
          "internalType": "uint256",
          "name": "amount",
          "type": "uint256"
        }
      ],
      "name": "ClaimOrderedWithdraw",
      "type": "event"
    },
    {
      "anonymous": false,
      "inputs": [
        {
          "indexed": true,
          "internalType": "address",
          "name": "dst",
          "type": "address"
        },
        {
          "indexed": false,
          "internalType": "uint256",
          "name": "wad",
          "type": "uint256"
        },
        {
          "indexed": false,
          "internalType": "uint256",
          "name": "old",
          "type": "uint256"
        }
      ],
      "name": "Deposit",
      "type": "event"
    },
    {
      "anonymous": false,
      "inputs": [
        {
          "indexed": true,
          "internalType": "address",
          "name": "poolAddress",
          "type": "address"
        },
        {
          "indexed": false,
          "internalType": "int256",
          "name": "amount",
          "type": "int256"
        }
      ],
      "name": "OrderWithdraw",
      "type": "event"
    },
    {
      "anonymous": false,
      "inputs": [
        {
          "indexed": true,
          "internalType": "address",
          "name": "poolAddress",
          "type": "address"
        },
        {
          "indexed": false,
          "internalType": "uint256",
          "name": "amount",
          "type": "uint256"
        }
      ],
      "name": "PoolWithdraw",
      "type": "event"
    },
    {
      "anonymous": false,
      "inputs": [
        {
          "indexed": false,
          "internalType": "address",
          "name": "pool",
          "type": "address"
        }
      ],
      "name": "RemovePool",
      "type": "event"
    },
    {
      "anonymous": false,
      "inputs": [
        {
          "indexed": false,
          "internalType": "address",
          "name": "proposedAdmin",
          "type": "address"
        }
      ],
      "name": "SetProposedAdmin",
      "type": "event"
    },
    {
      "anonymous": false,
      "inputs": [
        {
          "indexed": false,
          "internalType": "address",
          "name": "oldStakingAuRa",
          "type": "address"
        },
        {
          "indexed": false,
          "internalType": "address",
          "name": "newStakingAuRa",
          "type": "address"
        }
      ],
      "name": "SetStakingAuRa",
      "type": "event"
    },
    {
      "anonymous": false,
      "inputs": [
        {
          "indexed": true,
          "internalType": "address",
          "name": "src",
          "type": "address"
        },
        {
          "indexed": true,
          "internalType": "address",
          "name": "dst",
          "type": "address"
        },
        {
          "indexed": false,
          "internalType": "uint256",
          "name": "wad",
          "type": "uint256"
        }
      ],
      "name": "Transfer",
      "type": "event"
    },
    {
      "anonymous": false,
      "inputs": [
        {
          "indexed": true,
          "internalType": "address",
          "name": "src",
          "type": "address"
        },
        {
          "indexed": false,
          "internalType": "uint256",
          "name": "wad",
          "type": "uint256"
        }
      ],
      "name": "Withdrawal",
      "type": "event"
    },
    {
      "stateMutability": "payable",
      "type": "fallback"
    },
    {
      "inputs": [
        {
          "internalType": "address",
          "name": "_pool",
          "type": "address"
        }
      ],
      "name": "addPool",
      "outputs": [],
      "stateMutability": "nonpayable",
      "type": "function"
    },
    {
      "inputs": [],
      "name": "admin",
      "outputs": [
        {
          "internalType": "address",
          "name": "",
          "type": "address"
        }
      ],
      "stateMutability": "view",
      "type": "function"
    },
    {
      "inputs": [
        {
          "internalType": "address",
          "name": "",
          "type": "address"
        },
        {
          "internalType": "address",
          "name": "",
          "type": "address"
        }
      ],
      "name": "allowance",
      "outputs": [
        {
          "internalType": "uint256",
          "name": "",
          "type": "uint256"
        }
      ],
      "stateMutability": "view",
      "type": "function"
    },
    {
      "inputs": [
        {
          "internalType": "address",
          "name": "guy",
          "type": "address"
        },
        {
          "internalType": "uint256",
          "name": "wad",
          "type": "uint256"
        }
      ],
      "name": "approve",
      "outputs": [
        {
          "internalType": "bool",
          "name": "",
          "type": "bool"
        }
      ],
      "stateMutability": "nonpayable",
      "type": "function"
    },
    {
      "inputs": [
        {
          "internalType": "address",
          "name": "",
          "type": "address"
        }
      ],
      "name": "balanceOf",
      "outputs": [
        {
          "internalType": "uint256",
          "name": "",
          "type": "uint256"
        }
      ],
      "stateMutability": "view",
      "type": "function"
    },
    {
      "inputs": [
        {
          "internalType": "address",
          "name": "owner",
          "type": "address"
        }
      ],
      "name": "balanceOfUnderlying",
      "outputs": [
        {
          "internalType": "uint256",
          "name": "",
          "type": "uint256"
        }
      ],
      "stateMutability": "view",
      "type": "function"
    },
    {
      "inputs": [],
      "name": "claimAdmin",
      "outputs": [],
      "stateMutability": "nonpayable",
      "type": "function"
    },
    {
      "inputs": [],
      "name": "decimals",
      "outputs": [
        {
          "internalType": "uint8",
          "name": "",
          "type": "uint8"
        }
      ],
      "stateMutability": "view",
      "type": "function"
    },
    {
      "inputs": [],
      "name": "deposit",
      "outputs": [],
      "stateMutability": "payable",
      "type": "function"
    },
    {
      "inputs": [],
      "name": "exchangeRate",
      "outputs": [
        {
          "internalType": "uint256",
          "name": "",
          "type": "uint256"
        }
      ],
      "stateMutability": "view",
      "type": "function"
    },
    {
      "inputs": [],
      "name": "getLocalRedeemable",
      "outputs": [
        {
          "internalType": "uint256",
          "name": "",
          "type": "uint256"
        }
      ],
      "stateMutability": "view",
      "type": "function"
    },
    {
      "inputs": [],
      "name": "getPoolTotalBalance",
      "outputs": [
        {
          "internalType": "uint256",
          "name": "res",
          "type": "uint256"
        }
      ],
      "stateMutability": "view",
      "type": "function"
    },
    {
      "inputs": [],
      "name": "getPoolsStaked",
      "outputs": [
        {
          "internalType": "address[]",
          "name": "pool",
          "type": "address[]"
        },
        {
          "internalType": "uint256[]",
          "name": "stake",
          "type": "uint256[]"
        }
      ],
      "stateMutability": "view",
      "type": "function"
    },
    {
      "inputs": [],
      "name": "getStakedPools",
      "outputs": [
        {
          "internalType": "address[]",
          "name": "pool",
          "type": "address[]"
        }
      ],
      "stateMutability": "view",
      "type": "function"
    },
    {
      "inputs": [
        {
          "internalType": "uint256",
          "name": "index",
          "type": "uint256"
        }
      ],
      "name": "getStakingPool",
      "outputs": [
        {
          "internalType": "address",
          "name": "",
          "type": "address"
        }
      ],
      "stateMutability": "view",
      "type": "function"
    },
    {
      "inputs": [],
      "name": "getTotalStaked",
      "outputs": [
        {
          "internalType": "uint256",
          "name": "res",
          "type": "uint256"
        }
      ],
      "stateMutability": "view",
      "type": "function"
    },
    {
      "inputs": [],
      "name": "getTotalWithdrawable",
      "outputs": [
        {
          "internalType": "uint256",
          "name": "res",
          "type": "uint256"
        }
      ],
      "stateMutability": "view",
      "type": "function"
    },
    {
      "inputs": [],
      "name": "initialize",
      "outputs": [],
      "stateMutability": "nonpayable",
      "type": "function"
    },
    {
      "inputs": [],
      "name": "name",
      "outputs": [
        {
          "internalType": "string",
          "name": "",
          "type": "string"
        }
      ],
      "stateMutability": "view",
      "type": "function"
    },
    {
      "inputs": [],
      "name": "orderedAmount",
      "outputs": [
        {
          "internalType": "address[]",
          "name": "_pools",
          "type": "address[]"
        },
        {
          "internalType": "uint256[]",
          "name": "_amount",
          "type": "uint256[]"
        },
        {
          "internalType": "uint256[]",
          "name": "_claimableBlock",
          "type": "uint256[]"
        }
      ],
      "stateMutability": "view",
      "type": "function"
    },
    {
      "inputs": [],
      "name": "poolIndex",
      "outputs": [
        {
          "internalType": "uint256",
          "name": "",
          "type": "uint256"
        }
      ],
      "stateMutability": "view",
      "type": "function"
    },
    {
      "inputs": [],
      "name": "proposedAdmin",
      "outputs": [
        {
          "internalType": "address",
          "name": "",
          "type": "address"
        }
      ],
      "stateMutability": "view",
      "type": "function"
    },
    {
      "inputs": [
        {
          "internalType": "address",
          "name": "_pool",
          "type": "address"
        }
      ],
      "name": "remove",
      "outputs": [],
      "stateMutability": "nonpayable",
      "type": "function"
    },
    {
      "inputs": [
        {
          "internalType": "address",
          "name": "_proposedAdmin",
          "type": "address"
        }
      ],
      "name": "setProposedAdmin",
      "outputs": [],
      "stateMutability": "nonpayable",
      "type": "function"
    },
    {
      "inputs": [
        {
          "internalType": "address",
          "name": "_stakingAuRa",
          "type": "address"
        }
      ],
      "name": "setStakingAuRa",
      "outputs": [],
      "stateMutability": "nonpayable",
      "type": "function"
    },
    {
      "inputs": [],
      "name": "stakingAuRa",
      "outputs": [
        {
          "internalType": "contract IStakingAuRa",
          "name": "",
          "type": "address"
        }
      ],
      "stateMutability": "view",
      "type": "function"
    },
    {
      "inputs": [],
      "name": "symbol",
      "outputs": [
        {
          "internalType": "string",
          "name": "",
          "type": "string"
        }
      ],
      "stateMutability": "view",
      "type": "function"
    },
    {
      "inputs": [],
      "name": "totalSupply",
      "outputs": [
        {
          "internalType": "uint256",
          "name": "",
          "type": "uint256"
        }
      ],
      "stateMutability": "view",
      "type": "function"
    },
    {
      "inputs": [
        {
          "internalType": "address",
          "name": "dst",
          "type": "address"
        },
        {
          "internalType": "uint256",
          "name": "wad",
          "type": "uint256"
        }
      ],
      "name": "transfer",
      "outputs": [
        {
          "internalType": "bool",
          "name": "",
          "type": "bool"
        }
      ],
      "stateMutability": "nonpayable",
      "type": "function"
    },
    {
      "inputs": [
        {
          "internalType": "address",
          "name": "src",
          "type": "address"
        },
        {
          "internalType": "address",
          "name": "dst",
          "type": "address"
        },
        {
          "internalType": "uint256",
          "name": "wad",
          "type": "uint256"
        }
      ],
      "name": "transferFrom",
      "outputs": [
        {
          "internalType": "bool",
          "name": "",
          "type": "bool"
        }
      ],
      "stateMutability": "nonpayable",
      "type": "function"
    },
    {
      "inputs": [
        {
          "internalType": "uint256",
          "name": "wad",
          "type": "uint256"
        }
      ],
      "name": "withdraw",
      "outputs": [
        {
          "internalType": "uint256",
          "name": "",
          "type": "uint256"
        }
      ],
      "stateMutability": "nonpayable",
      "type": "function"
    },
    {
      "stateMutability": "payable",
      "type": "receive"
    }
  ],
  "transactionHash": "0x24f818026cc078525107076b3db26272686770c1860a36520a604085223caebb",
  "args": [],
  "solcInputHash": "375b7ca1bf5add141e32f4d4731257f7",
  "bytecode": "0x608060405234801561001057600080fd5b506001805561322b806100246000396000f3fe6080604052600436106101dc5760003560e01c80636f0a6f5611610102578063a2b44d7511610095578063d914cd4b11610064578063d914cd4b146107d9578063dc821e401461080c578063dd62ed3e14610821578063f851a4401461085c576101e3565b8063a2b44d751461067b578063a9059cbb146106a5578063ab146823146106de578063d0e30db0146107d1576101e3565b80637f7dfedd116100d15780637f7dfedd146106095780638129fc1c1461061e578063880dd18e1461063357806395d89b4114610666576101e3565b80636f0a6f56146105795780636f50539f1461058e57806370a08231146105c157806377f50f97146105f4576101e3565b806329092d0e1161017a5780633af9e669116101495780633af9e6691461046e5780633ba0b9a9146104a15780634ce272ee146104b65780636c15d9dc146104cb576101e3565b806329092d0e146103b55780632e1a7d4d146103e8578063313ce5671461041257806332f751ec1461043d576101e3565b80630dc07a3e116101b65780630dc07a3e146102e357806318160ddd146102f85780631e16d47d1461030d57806323b872dd14610372576101e3565b806306fdde03146101e55780630917e7761461026f578063095ea7b314610296576101e3565b366101e357005b005b3480156101f157600080fd5b506101fa610871565b6040805160208082528351818301528351919283929083019185019080838360005b8381101561023457818101518382015260200161021c565b50505050905090810190601f1680156102615780820380516001836020036101000a031916815260200191505b509250505060405180910390f35b34801561027b57600080fd5b506102846108fc565b60408051918252519081900360200190f35b3480156102a257600080fd5b506102cf600480360360408110156102b957600080fd5b506001600160a01b0381351690602001356109c5565b604080519115158252519081900360200190f35b3480156102ef57600080fd5b50610284610a2c565b34801561030457600080fd5b50610284610b1f565b34801561031957600080fd5b50610322610b26565b60408051602080825283518183015283519192839290830191858101910280838360005b8381101561035e578181015183820152602001610346565b505050509050019250505060405180910390f35b34801561037e57600080fd5b506102cf6004803603606081101561039557600080fd5b506001600160a01b03813581169160208101359091169060400135610d38565b3480156103c157600080fd5b506101e3600480360360208110156103d857600080fd5b50356001600160a01b0316610e6c565b3480156103f457600080fd5b506102846004803603602081101561040b57600080fd5b5035610f07565b34801561041e57600080fd5b50610427611780565b6040805160ff9092168252519081900360200190f35b34801561044957600080fd5b50610452611789565b604080516001600160a01b039092168252519081900360200190f35b34801561047a57600080fd5b506102846004803603602081101561049157600080fd5b50356001600160a01b0316611798565b3480156104ad57600080fd5b506102846117d8565b3480156104c257600080fd5b50610284611839565b3480156104d757600080fd5b506104e061183f565b604051808060200180602001838103835285818151815260200191508051906020019060200280838360005b8381101561052457818101518382015260200161050c565b50505050905001838103825284818151815260200191508051906020019060200280838360005b8381101561056357818101518382015260200161054b565b5050505090500194505050505060405180910390f35b34801561058557600080fd5b506102846119d7565b34801561059a57600080fd5b506101e3600480360360208110156105b157600080fd5b50356001600160a01b0316611add565b3480156105cd57600080fd5b50610284600480360360208110156105e457600080fd5b50356001600160a01b0316611b9a565b34801561060057600080fd5b506101e3611bac565b34801561061557600080fd5b50610284611c72565b34801561062a57600080fd5b506101e3611c81565b34801561063f57600080fd5b506101e36004803603602081101561065657600080fd5b50356001600160a01b0316611dbf565b34801561067257600080fd5b506101fa611e69565b34801561068757600080fd5b506104526004803603602081101561069e57600080fd5b5035611ec4565b3480156106b157600080fd5b506102cf600480360360408110156106c857600080fd5b506001600160a01b038135169060200135611ed1565b3480156106ea57600080fd5b506106f3611ee5565b60405180806020018060200180602001848103845287818151815260200191508051906020019060200280838360005b8381101561073b578181015183820152602001610723565b50505050905001848103835286818151815260200191508051906020019060200280838360005b8381101561077a578181015183820152602001610762565b50505050905001848103825285818151815260200191508051906020019060200280838360005b838110156107b95781810151838201526020016107a1565b50505050905001965050505050505060405180910390f35b6101e3612278565b3480156107e557600080fd5b506101e3600480360360208110156107fc57600080fd5b50356001600160a01b031661264a565b34801561081857600080fd5b506104526128af565b34801561082d57600080fd5b506102846004803603604081101561084457600080fd5b506001600160a01b03813581169160200135166128c3565b34801561086857600080fd5b506104526128e0565b6002805460408051602060018416156101000260001901909316849004601f810184900484028201840190925281815292918301828280156108f45780601f106108c9576101008083540402835291602001916108f4565b820191906000526020600020905b8154815290600101906020018083116108d757829003601f168201915b505050505081565b6000805b61090a60076128ef565b8110156109c1576004546109b79061010090046001600160a01b031663a697ecff6109366007856128fa565b306040518363ffffffff1660e01b815260040180836001600160a01b03168152602001826001600160a01b031681526020019250505060206040518083038186803b15801561098457600080fd5b505afa158015610998573d6000803e3d6000fd5b505050506040513d60208110156109ae57600080fd5b50518390612906565b9150600101610900565b5090565b336000818152600c602090815260408083206001600160a01b038716808552908352818420869055815186815291519394909390927f8c5be1e5ebec7d5bd14f71427d1e84f3dd0314c0f7b2291e5b200ac8c7c3b925928290030190a35060015b92915050565b60045460009061010090046001600160a01b0316815b610a4c60076128ef565b811015610b1a57610af16001600160a01b03831663e9ab0300610a706007856128fa565b306040518363ffffffff1660e01b815260040180836001600160a01b03168152602001826001600160a01b031681526020019250505060206040518083038186803b158015610abe57600080fd5b505afa158015610ad2573d6000803e3d6000fd5b505050506040513d6020811015610ae857600080fd5b50518490612906565b9250610b106001600160a01b03831663a697ecff610a706007856128fa565b9250600101610a42565b505090565b600a545b90565b60045460609060009061010090046001600160a01b0316815b610b4960076128ef565b811015610bfb5760006001600160a01b03831663a697ecff610b6c6007856128fa565b306040518363ffffffff1660e01b815260040180836001600160a01b03168152602001826001600160a01b031681526020019250505060206040518083038186803b158015610bba57600080fd5b505afa158015610bce573d6000803e3d6000fd5b505050506040513d6020811015610be457600080fd5b50511115610bf3576001909201915b600101610b3f565b508167ffffffffffffffff81118015610c1357600080fd5b50604051908082528060200260200182016040528015610c3d578160200160208202803683370190505b5092506000805b610c4e60076128ef565b811015610d315760006001600160a01b03841663a697ecff610c716007856128fa565b306040518363ffffffff1660e01b815260040180836001600160a01b03168152602001826001600160a01b031681526020019250505060206040518083038186803b158015610cbf57600080fd5b505afa158015610cd3573d6000803e3d6000fd5b505050506040513d6020811015610ce957600080fd5b50511115610d2957610cfc6007826128fa565b858381518110610d0857fe5b60200260200101906001600160a01b031690816001600160a01b0316815250505b600101610c44565b5050505090565b6001600160a01b0383166000908152600b6020526040812054821115610d5d57600080fd5b6001600160a01b0384163314801590610d9b57506001600160a01b0384166000908152600c6020908152604080832033845290915290205460001914155b15610dfb576001600160a01b0384166000908152600c60209081526040808320338452909152902054821115610dd057600080fd5b6001600160a01b0384166000908152600c602090815260408083203384529091529020805483900390555b6001600160a01b038085166000818152600b6020908152604080832080548890039055938716808352918490208054870190558351868152935191937fddf252ad1be2c89b69c2b068fc378daa952ba7f163c4a11628f55a4df523b3ef929081900390910190a35060019392505050565b6005546001600160a01b03163314610ebc576040805162461bcd60e51b815260206004820152600e60248201526d10591b5a5b881c995c5d5a5c995960921b604482015290519081900360640190fd5b610ec7600782612960565b50604080516001600160a01b038316815290517f0719c8bc6522957e7735717af2894124fbc9096cf04b5bfaabcff515779087659181900360200190a150565b600060026001541415610f61576040805162461bcd60e51b815260206004820152601f60248201527f5265656e7472616e637947756172643a207265656e7472616e742063616c6c00604482015290519081900360640190fd5b6002600155610f89610f716117d8565b610f8384670de0b6b3a7640000612975565b906129ce565b336000908152600b60205260409020541015610fe3576040805162461bcd60e51b8152602060048201526014602482015273496e73756666696369656e742062616c616e636560601b604482015290519081900360640190fd5b600047838110801561106b5750600460019054906101000a90046001600160a01b03166001600160a01b031663f49425016040518163ffffffff1660e01b815260040160206040518083038186803b15801561103e57600080fd5b505afa158015611052573d6000803e3d6000fd5b505050506040513d602081101561106857600080fd5b50515b156116b85760045461010090046001600160a01b03166000805b61108f60076128ef565b81101561116a576110a16007826128fa565b915060006110ae83612a10565b9050801561116157836001600160a01b031663cfef1441846040518263ffffffff1660e01b815260040180826001600160a01b03168152602001915050600060405180830381600087803b15801561110557600080fd5b505af1158015611119573d6000803e3d6000fd5b5050604080518481529051600199506001600160a01b03871693507f4340c7ff2cdebed2d56e70d56d91830025340d6a370e41d6e0417737147340b092509081900360200190a25b50600101611085565b504792506000868410156113a7576000836001600160a01b031663da7a9b6a6040518163ffffffff1660e01b815260040160206040518083038186803b1580156111b357600080fd5b505afa1580156111c7573d6000803e3d6000fd5b505050506040513d60208110156111dd57600080fd5b50519050600080805b6111f060076128ef565b8110156113a257878b1161120557600061120f565b61120f8b89612ba7565b94508461121b576113a2565b6112266007826128fa565b9550866001600160a01b0316636bda157787306040518363ffffffff1660e01b815260040180836001600160a01b03168152602001826001600160a01b031681526020019250505060206040518083038186803b15801561128657600080fd5b505afa15801561129a573d6000803e3d6000fd5b505050506040513d60208110156112b057600080fd5b50519150811561139a578482101580156112d35750836112d08387612ba7565b10155b156112e0578492506112e4565b8192505b866001600160a01b031663f3fef3a387856040518363ffffffff1660e01b815260040180836001600160a01b0316815260200182815260200192505050600060405180830381600087803b15801561133b57600080fd5b505af115801561134f573d6000803e3d6000fd5b505060408051868152905160019c506001600160a01b038a1693507f61a0b4d879cd5e5653631acae542581573d52905e66efcbb6246efca1ef306d692509081900360200190a24797505b6001016111e6565b505050505b479350868410156116b45760006113be60076128ef565b90506000805b828110156114795760006001600160a01b03871663e9ab03006113e86007856128fa565b306040518363ffffffff1660e01b815260040180836001600160a01b03168152602001826001600160a01b031681526020019250505060206040518083038186803b15801561143657600080fd5b505afa15801561144a573d6000803e3d6000fd5b505050506040513d602081101561146057600080fd5b5051905061146e8382612906565b9250506001016113c4565b50888110156116b1576000856001600160a01b031663da7a9b6a6040518163ffffffff1660e01b815260040160206040518083038186803b1580156114bd57600080fd5b505afa1580156114d1573d6000803e3d6000fd5b505050506040513d60208110156114e757600080fd5b50519050600080805b6114fa60076128ef565b8110156116ac57898d1161150f576000611519565b6115198d8b612ba7565b965086611525576116ac565b6115306007826128fa565b9750886001600160a01b031663950a651389306040518363ffffffff1660e01b815260040180836001600160a01b03168152602001826001600160a01b031681526020019250505060206040518083038186803b15801561159057600080fd5b505afa1580156115a4573d6000803e3d6000fd5b505050506040513d60208110156115ba57600080fd5b5051915081156116a4578682101580156115dd5750836115da8389612ba7565b10155b156115ea578692506115ee565b8192505b886001600160a01b031663b61ed63a89856040518363ffffffff1660e01b815260040180836001600160a01b0316815260200182815260200192505050600060405180830381600087803b15801561164557600080fd5b505af1158015611659573d6000803e3d6000fd5b505060408051868152905160019e506001600160a01b038c1693507f828b8af32701298b029bfa3492ac3772c520d2924fc977b0ca3220625fca4e9c92509081900360200190a24799505b6001016114f0565b505050505b50505b5050505b504760006116c68583612be9565b905080156116f75760006116db610f716117d8565b90506116e73382612bff565b600193506116f53383612cf6565b505b8261173e576040805162461bcd60e51b81526020600482015260126024820152711b9bc81858dd1a5bdb88195e1958dd5d195960721b604482015290519081900360640190fd5b60408051828152905133917f7fcf532c15f0a6db0bd6d0e038bea71d30d808c7d98cb3bf7268a95bf5081b65919081900360200190a260018055949350505050565b60045460ff1681565b6006546001600160a01b031681565b60006117d0670de0b6b3a7640000610f836117b16117d8565b6001600160a01b0386166000908152600b602052604090205490612975565b90505b919050565b6000600a54600014156117f45750670de0b6b3a7640000610b23565b60006117fe612d62565b9050600061180a610a2c565b600a5490915061183090610f83670de0b6b3a764000061182a8587612906565b90612975565b92505050610b23565b60095481565b600454606090819061010090046001600160a01b0316600061186160076128ef565b90508067ffffffffffffffff8111801561187a57600080fd5b506040519080825280602002602001820160405280156118a4578160200160208202803683370190505b5093508067ffffffffffffffff811180156118be57600080fd5b506040519080825280602002602001820160405280156118e8578160200160208202803683370190505b50925060005b818110156119d0576119016007826128fa565b85828151811061190d57fe5b6001600160a01b039283166020918202929092010152831663a697ecff6119356007846128fa565b306040518363ffffffff1660e01b815260040180836001600160a01b03168152602001826001600160a01b031681526020019250505060206040518083038186803b15801561198357600080fd5b505afa158015611997573d6000803e3d6000fd5b505050506040513d60208110156119ad57600080fd5b505184518590839081106119bd57fe5b60209081029190910101526001016118ee565b5050509091565b60006119e1611c72565b9050600080805b6119f260076128ef565b811015611ad757611a046007826128fa565b9150611aaf600460019054906101000a90046001600160a01b03166001600160a01b0316636bda157784306040518363ffffffff1660e01b815260040180836001600160a01b03168152602001826001600160a01b031681526020019250505060206040518083038186803b158015611a7c57600080fd5b505afa158015611a90573d6000803e3d6000fd5b505050506040513d6020811015611aa657600080fd5b50518590612906565b9350611aba82612a10565b92508215611acf57611acc8484612906565b93505b6001016119e8565b50505090565b6005546001600160a01b03163314611b2d576040805162461bcd60e51b815260206004820152600e60248201526d10591b5a5b881c995c5d5a5c995960921b604482015290519081900360640190fd5b600480546001600160a01b03838116610100818102610100600160a81b03198516179094556040805194909304919091168084526020840191909152815190927ffdc27664084fea27b5efcdf406298bb23454f212a4e72b4ef90c6c77ff2a934a92908290030190a15050565b600b6020526000908152604090205481565b6006546001600160a01b03163314611c04576040805162461bcd60e51b8152602060048201526016602482015275141c9bdc1bdcd95910591b5a5b881c995c5d5a5c995960521b604482015290519081900360640190fd5b60058054600680546001600160a01b03198084166001600160a01b03838116919091179586905591169091556040805192821680845293909116602083015280517f60cae9fabd3bef6b015e14f55d6c66df6c507bbacdb16149e2bf7c440690da279281900390910190a150565b6000611c7c612d62565b905090565b600054610100900460ff1680611c9a5750611c9a612d85565b80611ca8575060005460ff16155b611ce35760405162461bcd60e51b815260040180806020018281038252602e8152602001806131a7602e913960400191505060405180910390fd5b600054610100900460ff16158015611d0e576000805460ff1961ff0019909116610100171660011790555b600580546001600160a01b0319163317905560408051808201909152600d8082526c5374616b696e672056656c617360981b6020909201918252611d54916002916130b7565b50604080518082019091526004808252630a6ac98b60e31b6020909201918252611d80916003916130b7565b50600480546000600955601260ff1990911617610100600160a81b031916610100601160a01b011790558015611dbc576000805461ff00191690555b50565b6005546001600160a01b03163314611e0f576040805162461bcd60e51b815260206004820152600e60248201526d10591b5a5b881c995c5d5a5c995960921b604482015290519081900360640190fd5b600680546001600160a01b0319166001600160a01b03838116919091179182905560408051929091168252517f2c4244392c58c5683fb627aa721711e3d9fbd95b3c5c6d865e7ca955dcb874a1916020908290030190a150565b6003805460408051602060026001851615610100026000190190941693909304601f810184900484028201840190925281815292918301828280156108f45780601f106108c9576101008083540402835291602001916108f4565b60006117d06007836128fa565b6000611ede338484610d38565b9392505050565b60608060606000600460019054906101000a90046001600160a01b031690506000816001600160a01b031663794c0c686040518163ffffffff1660e01b815260040160206040518083038186803b158015611f3f57600080fd5b505afa158015611f53573d6000803e3d6000fd5b505050506040513d6020811015611f6957600080fd5b505190506000611f7960076128ef565b90508067ffffffffffffffff81118015611f9257600080fd5b50604051908082528060200260200182016040528015611fbc578160200160208202803683370190505b5095508067ffffffffffffffff81118015611fd657600080fd5b50604051908082528060200260200182016040528015612000578160200160208202803683370190505b5094508067ffffffffffffffff8111801561201a57600080fd5b50604051908082528060200260200182016040528015612044578160200160208202803683370190505b50935060005b8181101561226f5760006001600160a01b03851663e9ab030061206e6007856128fa565b306040518363ffffffff1660e01b815260040180836001600160a01b03168152602001826001600160a01b031681526020019250505060206040518083038186803b1580156120bc57600080fd5b505afa1580156120d0573d6000803e3d6000fd5b505050506040513d60208110156120e657600080fd5b505190506120f56007836128fa565b88838151811061210157fe5b60200260200101906001600160a01b031690816001600160a01b0316815250508087838151811061212e57fe5b60209081029190910101526001600160a01b03851663a42059676121536007856128fa565b306040518363ffffffff1660e01b815260040180836001600160a01b03168152602001826001600160a01b031681526020019250505060206040518083038186803b1580156121a157600080fd5b505afa1580156121b5573d6000803e3d6000fd5b505050506040513d60208110156121cb57600080fd5b5051841480156121db5750600081115b1561226657846001600160a01b0316638c2243ae6040518163ffffffff1660e01b815260040160206040518083038186803b15801561221957600080fd5b505afa15801561222d573d6000803e3d6000fd5b505050506040513d602081101561224357600080fd5b5051865160019091019087908490811061225957fe5b6020026020010181815250505b5060010161204a565b50505050909192565b600260015414156122d0576040805162461bcd60e51b815260206004820152601f60248201527f5265656e7472616e637947756172643a207265656e7472616e742063616c6c00604482015290519081900360640190fd5b60026001553461231f576040805162461bcd60e51b8152602060048201526015602482015274416d6f756e742063616e6e6f74206265207a65726f60581b604482015290519081900360640190fd5b600061233760095460076128fa90919063ffffffff16565b90506001600160a01b03811661238b576040805162461bcd60e51b8152602060048201526014602482015273506f6f6c206973207a65726f206164647265737360601b604482015290519081900360640190fd5b60006123aa6123986117d8565b610f8334670de0b6b3a7640000612975565b90506123b63382612d8b565b476123c160076128ef565b600954600101816123ce57fe5b06600981905550600460019054906101000a90046001600160a01b03166001600160a01b031663f49425016040518163ffffffff1660e01b815260040160206040518083038186803b15801561242357600080fd5b505afa158015612437573d6000803e3d6000fd5b505050506040513d602081101561244d57600080fd5b5051801561257c57506000600460019054906101000a90046001600160a01b03166001600160a01b031663a697ecff85306040518363ffffffff1660e01b815260040180836001600160a01b03168152602001826001600160a01b031681526020019250505060206040518083038186803b1580156124cb57600080fd5b505afa1580156124df573d6000803e3d6000fd5b505050506040513d60208110156124f557600080fd5b5051118061257c5750600460019054906101000a90046001600160a01b03166001600160a01b031663da7a9b6a6040518163ffffffff1660e01b815260040160206040518083038186803b15801561254c57600080fd5b505afa158015612560573d6000803e3d6000fd5b505050506040513d602081101561257657600080fd5b50518110155b1561260757600460019054906101000a90046001600160a01b03166001600160a01b031663adc9772e8285846040518463ffffffff1660e01b815260040180836001600160a01b03168152602001828152602001925050506000604051808303818588803b1580156125ed57600080fd5b505af1158015612601573d6000803e3d6000fd5b50505050505b6040805183815260208101839052815133927f90890809c654f11d6e72a28fa60149770a0d11ec6c92319d6ceb2bb0a4ea1a15928290030190a250506001805550565b6005546001600160a01b0316331461269a576040805162461bcd60e51b815260206004820152600e60248201526d10591b5a5b881c995c5d5a5c995960921b604482015290519081900360640190fd5b60006060600460019054906101000a90046001600160a01b03166001600160a01b031663673a2a1f6040518163ffffffff1660e01b815260040160006040518083038186803b1580156126ec57600080fd5b505afa158015612700573d6000803e3d6000fd5b505050506040513d6000823e601f3d908101601f19168201604052602081101561272957600080fd5b810190808051604051939291908464010000000082111561274957600080fd5b90830190602082018581111561275e57600080fd5b825186602082028301116401000000008211171561277b57600080fd5b82525081516020918201928201910280838360005b838110156127a8578181015183820152602001612790565b50505050905001604052505050905060005b815181101561281357836001600160a01b03168282815181106127d957fe5b60200260200101516001600160a01b0316141561280b578181815181106127fc57fe5b60200260200101519250612813565b6001016127ba565b506001600160a01b038216612862576040805162461bcd60e51b815260206004820152601060248201526f125b9d985b1a59081b995dc81c1bdbdb60821b604482015290519081900360640190fd5b61286d600783612e16565b50604080516001600160a01b038416815290517f8c82d670bc9247c2cfb6964089bc9cff0255f9caade6fbc74a13368083e554669181900360200190a1505050565b60045461010090046001600160a01b031681565b600c60209081526000928352604080842090915290825290205481565b6005546001600160a01b031681565b60006117d082612e2b565b6000611ede8383612e2f565b600082820183811015611ede576040805162461bcd60e51b815260206004820152601b60248201527f536166654d6174683a206164646974696f6e206f766572666c6f770000000000604482015290519081900360640190fd5b6000611ede836001600160a01b038416612e93565b60008261298457506000610a26565b8282028284828161299157fe5b0414611ede5760405162461bcd60e51b81526004018080602001828103825260218152602001806131d56021913960400191505060405180910390fd5b6000611ede83836040518060400160405280601a81526020017f536166654d6174683a206469766973696f6e206279207a65726f000000000000815250612f59565b600080600460019054906101000a90046001600160a01b031690506000816001600160a01b031663794c0c686040518163ffffffff1660e01b815260040160206040518083038186803b158015612a6657600080fd5b505afa158015612a7a573d6000803e3d6000fd5b505050506040513d6020811015612a9057600080fd5b50516040805163a420596760e01b81526001600160a01b03878116600483015230602483015291519293509084169163a420596791604480820192602092909190829003018186803b158015612ae557600080fd5b505afa158015612af9573d6000803e3d6000fd5b505050506040513d6020811015612b0f57600080fd5b5051811115612b9d576040805162e9ab0360e81b81526001600160a01b03868116600483015230602483015291519184169163e9ab030091604480820192602092909190829003018186803b158015612b6757600080fd5b505afa158015612b7b573d6000803e3d6000fd5b505050506040513d6020811015612b9157600080fd5b505192506117d3915050565b5060009392505050565b6000611ede83836040518060400160405280601e81526020017f536166654d6174683a207375627472616374696f6e206f766572666c6f770000815250612ffb565b6000818310612bf85781611ede565b5090919050565b6001600160a01b0382166000908152600b6020526040902054811115612c6c576040805162461bcd60e51b815260206004820152601c60248201527f6275726e20616d6f756e7420657863656564732062616c616e63652700000000604482015290519081900360640190fd5b600a54612c799082612ba7565b600a556001600160a01b0382166000908152600b6020526040902054612c9f9082612ba7565b6001600160a01b0383166000818152600b60209081526040808320949094558351858152935191937fddf252ad1be2c89b69c2b068fc378daa952ba7f163c4a11628f55a4df523b3ef929081900390910190a35050565b6040516001600160a01b0383169082156108fc029083906000818181858888f19350505050612d5e578082604051612d2d90613131565b6001600160a01b039091168152604051908190036020019082f0905080158015612d5b573d6000803e3d6000fd5b50505b5050565b600034471115612d7d57612d764734612ba7565b9050610b23565b506000610b23565b303b1590565b600a54612d989082612906565b600a556001600160a01b0382166000908152600b6020526040902054612dbe9082612906565b6001600160a01b0383166000818152600b602090815260408083209490945583518581529351929391927fddf252ad1be2c89b69c2b068fc378daa952ba7f163c4a11628f55a4df523b3ef9281900390910190a35050565b6000611ede836001600160a01b038416613055565b5490565b81546000908210612e715760405162461bcd60e51b81526004018080602001828103825260228152602001806131856022913960400191505060405180910390fd5b826000018281548110612e8057fe5b9060005260206000200154905092915050565b60008181526001830160205260408120548015612f4f5783546000198083019190810190600090879083908110612ec657fe5b9060005260206000200154905080876000018481548110612ee357fe5b600091825260208083209091019290925582815260018981019092526040902090840190558654879080612f1357fe5b60019003818190600052602060002001600090559055866001016000878152602001908152602001600020600090556001945050505050610a26565b6000915050610a26565b60008183612fe55760405162461bcd60e51b81526004018080602001828103825283818151815260200191508051906020019080838360005b83811015612faa578181015183820152602001612f92565b50505050905090810190601f168015612fd75780820380516001836020036101000a031916815260200191505b509250505060405180910390fd5b506000838581612ff157fe5b0495945050505050565b6000818484111561304d5760405162461bcd60e51b8152602060048201818152835160248401528351909283926044909101919085019080838360008315612faa578181015183820152602001612f92565b505050900390565b6000613061838361309f565b61309757508154600181810184556000848152602080822090930184905584548482528286019093526040902091909155610a26565b506000610a26565b60009081526001919091016020526040902054151590565b828054600181600116156101000203166002900490600052602060002090601f016020900481019282601f106130f857805160ff1916838001178555613125565b82800160010185558215613125579182015b8281111561312557825182559160200191906001019061310a565b506109c192915061313d565b60328061315383390190565b5b808211156109c1576000815560010161313e56fe60806040526040516032380380603283398181016040526020811015602357600080fd5b50516001600160a01b038116fffe456e756d657261626c655365743a20696e646578206f7574206f6620626f756e6473496e697469616c697a61626c653a20636f6e747261637420697320616c726561647920696e697469616c697a6564536166654d6174683a206d756c7469706c69636174696f6e206f766572666c6f77a2646970667358221220e12c74fc13f5c38e94d5aca3bf70c5a32b8cc6a418069eca2454e083c7e0dd1964736f6c634300060c0033",
  "devdoc": {
    "events": {
      "AddPool(address)": {
        "params": {
          "newPool": "new pool address"
        }
      },
      "ClaimAdmin(address,address)": {
        "params": {
          "newAdmin": "new address",
          "oldAdmin": "old address"
        }
      },
      "ClaimOrderedWithdraw(address,uint256)": {
        "params": {
          "amount": "ordered amount",
          "poolAddress": "pool address"
        }
      },
      "OrderWithdraw(address,int256)": {
        "params": {
          "amount": "amount withdrew",
          "poolAddress": "pool address"
        }
      },
      "PoolWithdraw(address,uint256)": {
        "params": {
          "amount": "amount withdrew",
          "poolAddress": "pool address"
        }
      },
      "RemovePool(address)": {
        "params": {
          "pool": "pool address"
        }
      },
      "SetProposedAdmin(address)": {
        "params": {
          "proposedAdmin": "proposed admin address"
        }
      },
      "SetStakingAuRa(address,address)": {
        "params": {
          "newStakingAuRa": "new address",
          "oldStakingAuRa": "old address"
        }
      }
    },
    "kind": "dev",
    "methods": {
      "addPool(address)": {
        "params": {
          "_pool": "pool address"
        }
      },
      "remove(address)": {
        "params": {
          "_pool": "pool address"
        }
      },
      "setStakingAuRa(address)": {
        "params": {
          "_stakingAuRa": "staking contract address"
        }
      }
    },
    "stateVariables": {
      "_totalSupply": {
        "details": "SVLX token total supply"
      },
      "stakingPools": {
        "details": "Staking pool addresses"
      }
    },
    "version": 1
  },
  "userdoc": {
    "events": {
      "AddPool(address)": {
        "notice": "Event: Add a new staking pool"
      },
      "ClaimAdmin(address,address)": {
        "notice": "Event: Claim admin"
      },
      "ClaimOrderedWithdraw(address,uint256)": {
        "notice": "Event: claim previously ordered tokens"
      },
      "OrderWithdraw(address,int256)": {
        "notice": "Event: withdraw from the ordered tokens"
      },
      "PoolWithdraw(address,uint256)": {
        "notice": "Event: withdraw from the pool"
      },
      "RemovePool(address)": {
        "notice": "Event: Remove a existing staking pool"
      },
      "SetProposedAdmin(address)": {
        "notice": "Event: Set proposed admin"
      },
      "SetStakingAuRa(address,address)": {
        "notice": "Event: Set the staking contract address"
      }
    },
    "kind": "user",
    "methods": {
      "addPool(address)": {
        "notice": "Add a new staking pool"
      },
      "admin()": {
        "notice": "contract admin address"
      },
      "claimAdmin()": {
        "notice": "Claim the admin"
      },
      "deposit()": {
        "notice": "Deposit VLX into VELAS pools and mint SVLX tokens"
      },
      "getLocalRedeemable()": {
        "notice": "Returnt the total amount that can be redeemed by the SVLX holders"
      },
      "getPoolTotalBalance()": {
        "notice": "Get the total amount of VLX in the staking pools, including the staked and ordered amount"
      },
      "getPoolsStaked()": {
        "notice": "Get all the staking pools"
      },
      "getStakedPools()": {
        "notice": "Get the pools where the stake amount is greater than 0"
      },
      "getTotalStaked()": {
        "notice": "Get the amount of total staked VLX"
      },
      "getTotalWithdrawable()": {
        "notice": "Get the total withdrawable amount, including the redeemable balance of the contract, and ordered and unlocked amount in the staking pools."
      },
      "poolIndex()": {
        "notice": "Next pool index"
      },
      "proposedAdmin()": {
        "notice": "Proposed new admin address"
      },
      "remove(address)": {
        "notice": "Remove a staking pool"
      },
      "setStakingAuRa(address)": {
        "notice": "Set the staking contract address"
      },
      "stakingAuRa()": {
        "notice": "VELAS staking contract"
      },
      "withdraw(uint256)": {
        "notice": "Redeem VLX from the stake pools"
      }
    },
    "version": 1
  },
  "storageLayout": {
    "storage": [
      {
        "astId": 2685,
        "contract": "contracts/SVLX.sol:SVLX",
        "label": "_initialized",
        "offset": 0,
        "slot": "0",
        "type": "t_bool"
      },
      {
        "astId": 2688,
        "contract": "contracts/SVLX.sol:SVLX",
        "label": "_initializing",
        "offset": 1,
        "slot": "0",
        "type": "t_bool"
      },
      {
        "astId": 2836,
        "contract": "contracts/SVLX.sol:SVLX",
        "label": "_status",
        "offset": 0,
        "slot": "1",
        "type": "t_uint256"
      },
      {
        "astId": 25,
        "contract": "contracts/SVLX.sol:SVLX",
        "label": "name",
        "offset": 0,
        "slot": "2",
        "type": "t_string_storage"
      },
      {
        "astId": 27,
        "contract": "contracts/SVLX.sol:SVLX",
        "label": "symbol",
        "offset": 0,
        "slot": "3",
        "type": "t_string_storage"
      },
      {
        "astId": 29,
        "contract": "contracts/SVLX.sol:SVLX",
        "label": "decimals",
        "offset": 0,
        "slot": "4",
        "type": "t_uint8"
      },
      {
        "astId": 32,
        "contract": "contracts/SVLX.sol:SVLX",
        "label": "stakingAuRa",
        "offset": 1,
        "slot": "4",
        "type": "t_contract(IStakingAuRa)1992"
      },
      {
        "astId": 35,
        "contract": "contracts/SVLX.sol:SVLX",
        "label": "admin",
        "offset": 0,
        "slot": "5",
        "type": "t_address"
      },
      {
        "astId": 38,
        "contract": "contracts/SVLX.sol:SVLX",
        "label": "proposedAdmin",
        "offset": 0,
        "slot": "6",
        "type": "t_address"
      },
      {
        "astId": 41,
        "contract": "contracts/SVLX.sol:SVLX",
        "label": "stakingPools",
        "offset": 0,
        "slot": "7",
        "type": "t_struct(AddressSet)2463_storage"
      },
      {
        "astId": 44,
        "contract": "contracts/SVLX.sol:SVLX",
        "label": "poolIndex",
        "offset": 0,
        "slot": "9",
        "type": "t_uint256"
      },
      {
        "astId": 47,
        "contract": "contracts/SVLX.sol:SVLX",
        "label": "_totalSupply",
        "offset": 0,
        "slot": "10",
        "type": "t_uint256"
      },
      {
        "astId": 137,
        "contract": "contracts/SVLX.sol:SVLX",
        "label": "balanceOf",
        "offset": 0,
        "slot": "11",
        "type": "t_mapping(t_address,t_uint256)"
      },
      {
        "astId": 143,
        "contract": "contracts/SVLX.sol:SVLX",
        "label": "allowance",
        "offset": 0,
        "slot": "12",
        "type": "t_mapping(t_address,t_mapping(t_address,t_uint256))"
      }
    ],
    "types": {
      "t_address": {
        "encoding": "inplace",
        "label": "address",
        "numberOfBytes": "20"
      },
      "t_array(t_bytes32)dyn_storage": {
        "base": "t_bytes32",
        "encoding": "dynamic_array",
        "label": "bytes32[]",
        "numberOfBytes": "32"
      },
      "t_bool": {
        "encoding": "inplace",
        "label": "bool",
        "numberOfBytes": "1"
      },
      "t_bytes32": {
        "encoding": "inplace",
        "label": "bytes32",
        "numberOfBytes": "32"
      },
      "t_contract(IStakingAuRa)1992": {
        "encoding": "inplace",
        "label": "contract IStakingAuRa",
        "numberOfBytes": "20"
      },
      "t_mapping(t_address,t_mapping(t_address,t_uint256))": {
        "encoding": "mapping",
        "key": "t_address",
        "label": "mapping(address => mapping(address => uint256))",
        "numberOfBytes": "32",
        "value": "t_mapping(t_address,t_uint256)"
      },
      "t_mapping(t_address,t_uint256)": {
        "encoding": "mapping",
        "key": "t_address",
        "label": "mapping(address => uint256)",
        "numberOfBytes": "32",
        "value": "t_uint256"
      },
      "t_mapping(t_bytes32,t_uint256)": {
        "encoding": "mapping",
        "key": "t_bytes32",
        "label": "mapping(bytes32 => uint256)",
        "numberOfBytes": "32",
        "value": "t_uint256"
      },
      "t_string_storage": {
        "encoding": "bytes",
        "label": "string",
        "numberOfBytes": "32"
      },
      "t_struct(AddressSet)2463_storage": {
        "encoding": "inplace",
        "label": "struct EnumerableSet.AddressSet",
        "members": [
          {
            "astId": 2462,
            "contract": "contracts/SVLX.sol:SVLX",
            "label": "_inner",
            "offset": 0,
            "slot": "0",
            "type": "t_struct(Set)2198_storage"
          }
        ],
        "numberOfBytes": "64"
      },
      "t_struct(Set)2198_storage": {
        "encoding": "inplace",
        "label": "struct EnumerableSet.Set",
        "members": [
          {
            "astId": 2193,
            "contract": "contracts/SVLX.sol:SVLX",
            "label": "_values",
            "offset": 0,
            "slot": "0",
            "type": "t_array(t_bytes32)dyn_storage"
          },
          {
            "astId": 2197,
            "contract": "contracts/SVLX.sol:SVLX",
            "label": "_indexes",
            "offset": 0,
            "slot": "1",
            "type": "t_mapping(t_bytes32,t_uint256)"
          }
        ],
        "numberOfBytes": "64"
      },
      "t_uint256": {
        "encoding": "inplace",
        "label": "uint256",
        "numberOfBytes": "32"
      },
      "t_uint8": {
        "encoding": "inplace",
        "label": "uint8",
        "numberOfBytes": "1"
      }
    }
  }
}