{
  "address": "0x454a8EEd74976f92Cb5C21CC75883743d1f775CB",
  "abi": [
    {
      "anonymous": false,
      "inputs": [
        {
          "indexed": false,
          "internalType": "address",
          "name": "newPool",
          "type": "address"
        }
      ],
      "name": "AddPool",
      "type": "event"
    },
    {
      "anonymous": false,
      "inputs": [
        {
          "indexed": true,
          "internalType": "address",
          "name": "src",
          "type": "address"
        },
        {
          "indexed": true,
          "internalType": "address",
          "name": "guy",
          "type": "address"
        },
        {
          "indexed": false,
          "internalType": "uint256",
          "name": "wad",
          "type": "uint256"
        }
      ],
      "name": "Approval",
      "type": "event"
    },
    {
      "anonymous": false,
      "inputs": [
        {
          "indexed": false,
          "internalType": "address",
          "name": "oldAdmin",
          "type": "address"
        },
        {
          "indexed": false,
          "internalType": "address",
          "name": "newAdmin",
          "type": "address"
        }
      ],
      "name": "ClaimAdmin",
      "type": "event"
    },
    {
      "anonymous": false,
      "inputs": [
        {
          "indexed": true,
          "internalType": "address",
          "name": "poolAddress",
          "type": "address"
        },
        {
          "indexed": false,
          "internalType": "uint256",
          "name": "amount",
          "type": "uint256"
        }
      ],
      "name": "ClaimOrderedWithdraw",
      "type": "event"
    },
    {
      "anonymous": false,
      "inputs": [
        {
          "indexed": true,
          "internalType": "address",
          "name": "dst",
          "type": "address"
        },
        {
          "indexed": false,
          "internalType": "uint256",
          "name": "wad",
          "type": "uint256"
        },
        {
          "indexed": false,
          "internalType": "uint256",
          "name": "old",
          "type": "uint256"
        }
      ],
      "name": "Deposit",
      "type": "event"
    },
    {
      "anonymous": false,
      "inputs": [
        {
          "indexed": true,
          "internalType": "address",
          "name": "poolAddress",
          "type": "address"
        },
        {
          "indexed": false,
          "internalType": "int256",
          "name": "amount",
          "type": "int256"
        }
      ],
      "name": "OrderWithdraw",
      "type": "event"
    },
    {
      "anonymous": false,
      "inputs": [
        {
          "indexed": true,
          "internalType": "address",
          "name": "poolAddress",
          "type": "address"
        },
        {
          "indexed": false,
          "internalType": "uint256",
          "name": "amount",
          "type": "uint256"
        }
      ],
      "name": "PoolWithdraw",
      "type": "event"
    },
    {
      "anonymous": false,
      "inputs": [
        {
          "indexed": false,
          "internalType": "address",
          "name": "pool",
          "type": "address"
        }
      ],
      "name": "RemovePool",
      "type": "event"
    },
    {
      "anonymous": false,
      "inputs": [
        {
          "indexed": false,
          "internalType": "address",
          "name": "proposedAdmin",
          "type": "address"
        }
      ],
      "name": "SetProposedAdmin",
      "type": "event"
    },
    {
      "anonymous": false,
      "inputs": [
        {
          "indexed": false,
          "internalType": "address",
          "name": "oldStakingAuRa",
          "type": "address"
        },
        {
          "indexed": false,
          "internalType": "address",
          "name": "newStakingAuRa",
          "type": "address"
        }
      ],
      "name": "SetStakingAuRa",
      "type": "event"
    },
    {
      "anonymous": false,
      "inputs": [
        {
          "indexed": true,
          "internalType": "address",
          "name": "src",
          "type": "address"
        },
        {
          "indexed": true,
          "internalType": "address",
          "name": "dst",
          "type": "address"
        },
        {
          "indexed": false,
          "internalType": "uint256",
          "name": "wad",
          "type": "uint256"
        }
      ],
      "name": "Transfer",
      "type": "event"
    },
    {
      "anonymous": false,
      "inputs": [
        {
          "indexed": true,
          "internalType": "address",
          "name": "src",
          "type": "address"
        },
        {
          "indexed": false,
          "internalType": "uint256",
          "name": "wad",
          "type": "uint256"
        }
      ],
      "name": "Withdrawal",
      "type": "event"
    },
    {
      "stateMutability": "nonpayable",
      "type": "fallback"
    },
    {
      "inputs": [
        {
          "internalType": "address",
          "name": "_pool",
          "type": "address"
        }
      ],
      "name": "addPool",
      "outputs": [],
      "stateMutability": "nonpayable",
      "type": "function"
    },
    {
      "inputs": [],
      "name": "admin",
      "outputs": [
        {
          "internalType": "address",
          "name": "",
          "type": "address"
        }
      ],
      "stateMutability": "view",
      "type": "function"
    },
    {
      "inputs": [
        {
          "internalType": "address",
          "name": "",
          "type": "address"
        },
        {
          "internalType": "address",
          "name": "",
          "type": "address"
        }
      ],
      "name": "allowance",
      "outputs": [
        {
          "internalType": "uint256",
          "name": "",
          "type": "uint256"
        }
      ],
      "stateMutability": "view",
      "type": "function"
    },
    {
      "inputs": [
        {
          "internalType": "address",
          "name": "guy",
          "type": "address"
        },
        {
          "internalType": "uint256",
          "name": "wad",
          "type": "uint256"
        }
      ],
      "name": "approve",
      "outputs": [
        {
          "internalType": "bool",
          "name": "",
          "type": "bool"
        }
      ],
      "stateMutability": "nonpayable",
      "type": "function"
    },
    {
      "inputs": [
        {
          "internalType": "address",
          "name": "",
          "type": "address"
        }
      ],
      "name": "balanceOf",
      "outputs": [
        {
          "internalType": "uint256",
          "name": "",
          "type": "uint256"
        }
      ],
      "stateMutability": "view",
      "type": "function"
    },
    {
      "inputs": [],
      "name": "claimAdmin",
      "outputs": [],
      "stateMutability": "nonpayable",
      "type": "function"
    },
    {
      "inputs": [],
      "name": "claimRewards",
      "outputs": [
        {
          "internalType": "uint256",
          "name": "",
          "type": "uint256"
        }
      ],
      "stateMutability": "nonpayable",
      "type": "function"
    },
    {
      "inputs": [],
      "name": "decimals",
      "outputs": [
        {
          "internalType": "uint8",
          "name": "",
          "type": "uint8"
        }
      ],
      "stateMutability": "view",
      "type": "function"
    },
    {
      "inputs": [],
      "name": "deposit",
      "outputs": [],
      "stateMutability": "payable",
      "type": "function"
    },
    {
      "inputs": [],
      "name": "getLocalRedeemable",
      "outputs": [
        {
          "internalType": "uint256",
          "name": "",
          "type": "uint256"
        }
      ],
      "stateMutability": "view",
      "type": "function"
    },
    {
      "inputs": [],
      "name": "getPoolTotalBalance",
      "outputs": [
        {
          "internalType": "uint256",
          "name": "res",
          "type": "uint256"
        }
      ],
      "stateMutability": "view",
      "type": "function"
    },
    {
      "inputs": [],
      "name": "getPoolsStaked",
      "outputs": [
        {
          "internalType": "address[]",
          "name": "pool",
          "type": "address[]"
        },
        {
          "internalType": "uint256[]",
          "name": "stake",
          "type": "uint256[]"
        }
      ],
      "stateMutability": "view",
      "type": "function"
    },
    {
      "inputs": [],
      "name": "getStakedPools",
      "outputs": [
        {
          "internalType": "address[]",
          "name": "pool",
          "type": "address[]"
        }
      ],
      "stateMutability": "view",
      "type": "function"
    },
    {
      "inputs": [
        {
          "internalType": "uint256",
          "name": "index",
          "type": "uint256"
        }
      ],
      "name": "getStakingPool",
      "outputs": [
        {
          "internalType": "address",
          "name": "",
          "type": "address"
        }
      ],
      "stateMutability": "view",
      "type": "function"
    },
    {
      "inputs": [],
      "name": "getTotalRewards",
      "outputs": [
        {
          "internalType": "uint256",
          "name": "",
          "type": "uint256"
        }
      ],
      "stateMutability": "view",
      "type": "function"
    },
    {
      "inputs": [],
      "name": "getTotalStaked",
      "outputs": [
        {
          "internalType": "uint256",
          "name": "res",
          "type": "uint256"
        }
      ],
      "stateMutability": "view",
      "type": "function"
    },
    {
      "inputs": [],
      "name": "getTotalWithdrawable",
      "outputs": [
        {
          "internalType": "uint256",
          "name": "res",
          "type": "uint256"
        }
      ],
      "stateMutability": "view",
      "type": "function"
    },
    {
      "inputs": [
        {
          "internalType": "address",
          "name": "account",
          "type": "address"
        }
      ],
      "name": "getUserRewards",
      "outputs": [
        {
          "internalType": "uint256",
          "name": "",
          "type": "uint256"
        }
      ],
      "stateMutability": "nonpayable",
      "type": "function"
    },
    {
      "inputs": [],
      "name": "initialize",
      "outputs": [],
      "stateMutability": "nonpayable",
      "type": "function"
    },
    {
      "inputs": [],
      "name": "name",
      "outputs": [
        {
          "internalType": "string",
          "name": "",
          "type": "string"
        }
      ],
      "stateMutability": "view",
      "type": "function"
    },
    {
      "inputs": [],
      "name": "orderedAmount",
      "outputs": [
        {
          "internalType": "address[]",
          "name": "_pools",
          "type": "address[]"
        },
        {
          "internalType": "uint256[]",
          "name": "_amount",
          "type": "uint256[]"
        },
        {
          "internalType": "uint256[]",
          "name": "_claimableBlock",
          "type": "uint256[]"
        }
      ],
      "stateMutability": "view",
      "type": "function"
    },
    {
      "inputs": [],
      "name": "poolIndex",
      "outputs": [
        {
          "internalType": "uint256",
          "name": "",
          "type": "uint256"
        }
      ],
      "stateMutability": "view",
      "type": "function"
    },
    {
      "inputs": [],
      "name": "proposedAdmin",
      "outputs": [
        {
          "internalType": "address",
          "name": "",
          "type": "address"
        }
      ],
      "stateMutability": "view",
      "type": "function"
    },
    {
      "inputs": [
        {
          "internalType": "address",
          "name": "_pool",
          "type": "address"
        }
      ],
      "name": "remove",
      "outputs": [],
      "stateMutability": "nonpayable",
      "type": "function"
    },
    {
      "inputs": [],
      "name": "rewardDebt",
      "outputs": [
        {
          "internalType": "uint256",
          "name": "",
          "type": "uint256"
        }
      ],
      "stateMutability": "view",
      "type": "function"
    },
    {
      "inputs": [],
      "name": "rewardIndex",
      "outputs": [
        {
          "internalType": "uint256",
          "name": "",
          "type": "uint256"
        }
      ],
      "stateMutability": "view",
      "type": "function"
    },
    {
      "inputs": [
        {
          "internalType": "address",
          "name": "_proposedAdmin",
          "type": "address"
        }
      ],
      "name": "setProposedAdmin",
      "outputs": [],
      "stateMutability": "nonpayable",
      "type": "function"
    },
    {
      "inputs": [
        {
          "internalType": "address",
          "name": "_stakingAuRa",
          "type": "address"
        }
      ],
      "name": "setStakingAuRa",
      "outputs": [],
      "stateMutability": "nonpayable",
      "type": "function"
    },
    {
      "inputs": [],
      "name": "stakingAuRa",
      "outputs": [
        {
          "internalType": "contract IStakingAuRa",
          "name": "",
          "type": "address"
        }
      ],
      "stateMutability": "view",
      "type": "function"
    },
    {
      "inputs": [],
      "name": "symbol",
      "outputs": [
        {
          "internalType": "string",
          "name": "",
          "type": "string"
        }
      ],
      "stateMutability": "view",
      "type": "function"
    },
    {
      "inputs": [],
      "name": "totalSupply",
      "outputs": [
        {
          "internalType": "uint256",
          "name": "",
          "type": "uint256"
        }
      ],
      "stateMutability": "view",
      "type": "function"
    },
    {
      "inputs": [
        {
          "internalType": "address",
          "name": "dst",
          "type": "address"
        },
        {
          "internalType": "uint256",
          "name": "wad",
          "type": "uint256"
        }
      ],
      "name": "transfer",
      "outputs": [
        {
          "internalType": "bool",
          "name": "",
          "type": "bool"
        }
      ],
      "stateMutability": "nonpayable",
      "type": "function"
    },
    {
      "inputs": [
        {
          "internalType": "address",
          "name": "src",
          "type": "address"
        },
        {
          "internalType": "address",
          "name": "dst",
          "type": "address"
        },
        {
          "internalType": "uint256",
          "name": "wad",
          "type": "uint256"
        }
      ],
      "name": "transferFrom",
      "outputs": [
        {
          "internalType": "bool",
          "name": "",
          "type": "bool"
        }
      ],
      "stateMutability": "nonpayable",
      "type": "function"
    },
    {
      "inputs": [],
      "name": "update",
      "outputs": [],
      "stateMutability": "nonpayable",
      "type": "function"
    },
    {
      "inputs": [
        {
          "internalType": "address",
          "name": "recipient",
          "type": "address"
        }
      ],
      "name": "updateFor",
      "outputs": [],
      "stateMutability": "nonpayable",
      "type": "function"
    },
    {
      "inputs": [
        {
          "internalType": "address",
          "name": "",
          "type": "address"
        }
      ],
      "name": "userRewardClaimable",
      "outputs": [
        {
          "internalType": "uint256",
          "name": "",
          "type": "uint256"
        }
      ],
      "stateMutability": "view",
      "type": "function"
    },
    {
      "inputs": [
        {
          "internalType": "address",
          "name": "",
          "type": "address"
        }
      ],
      "name": "userRewardIndex",
      "outputs": [
        {
          "internalType": "uint256",
          "name": "",
          "type": "uint256"
        }
      ],
      "stateMutability": "view",
      "type": "function"
    },
    {
      "inputs": [
        {
          "internalType": "uint256",
          "name": "wad",
          "type": "uint256"
        }
      ],
      "name": "withdraw",
      "outputs": [
        {
          "internalType": "uint256",
          "name": "",
          "type": "uint256"
        }
      ],
      "stateMutability": "nonpayable",
      "type": "function"
    },
    {
      "stateMutability": "payable",
      "type": "receive"
    }
  ],
  "transactionHash": "0x72b8cd68a7e97601d1c218ae90f2ff2e911f9cdbfb886ee98a0ef8d4e8a6872b",
  "args": [],
  "solcInputHash": "a1184ad640c737ff8d2f7024fdf13dee",
  "bytecode": "0x60806040526000600b556000600c5534801561001a57600080fd5b50600180556133a78061002e6000396000f3fe6080604052600436106102295760003560e01c806370a0823111610123578063ab146823116100ab578063dd62ed3e1161006f578063dd62ed3e1461092b578063e627f2db14610966578063e9ee2fa91461097b578063ec60e3fd14610990578063f851a440146109a557610230565b8063ab146823146107b5578063c98ec028146108a8578063d0e30db0146108db578063d914cd4b146108e3578063dc821e401461091657610230565b8063880dd18e116100f2578063880dd18e146106f557806395d89b4114610728578063a2b44d751461073d578063a2e6204514610767578063a9059cbb1461077c57610230565b806370a082311461068357806377f50f97146106b65780637f7dfedd146106cb5780638129fc1c146106e057610230565b806329092d0e116101b15780634ce272ee116101755780634ce272ee1461054557806355aeea2c1461055a5780636c15d9dc1461058d5780636f0a6f561461063b5780636f50539f1461065057610230565b806329092d0e146104775780632e1a7d4d146104aa578063313ce567146104d457806332f751ec146104ff578063372500ab1461053057610230565b80630dc07a3e116101f85780630dc07a3e146103705780630e0a59681461038557806318160ddd146103ba5780631e16d47d146103cf57806323b872dd1461043457610230565b806306fdde031461023f578063078b0fb7146102c95780630917e7761461030e578063095ea7b31461032357610230565b3661023057005b34801561023c57600080fd5b50005b34801561024b57600080fd5b506102546109ba565b6040805160208082528351818301528351919283929083019185019080838360005b8381101561028e578181015183820152602001610276565b50505050905090810190601f1680156102bb5780820380516001836020036101000a031916815260200191505b509250505060405180910390f35b3480156102d557600080fd5b506102fc600480360360208110156102ec57600080fd5b50356001600160a01b0316610a45565b60408051918252519081900360200190f35b34801561031a57600080fd5b506102fc610a70565b34801561032f57600080fd5b5061035c6004803603604081101561034657600080fd5b506001600160a01b038135169060200135610b39565b604080519115158252519081900360200190f35b34801561037c57600080fd5b506102fc610ba0565b34801561039157600080fd5b506103b8600480360360208110156103a857600080fd5b50356001600160a01b0316610c93565b005b3480156103c657600080fd5b506102fc610da3565b3480156103db57600080fd5b506103e4610daa565b60408051602080825283518183015283519192839290830191858101910280838360005b83811015610420578181015183820152602001610408565b505050509050019250505060405180910390f35b34801561044057600080fd5b5061035c6004803603606081101561045757600080fd5b506001600160a01b03813581169160208101359091169060400135610fbc565b34801561048357600080fd5b506103b86004803603602081101561049a57600080fd5b50356001600160a01b0316611102565b3480156104b657600080fd5b506102fc600480360360208110156104cd57600080fd5b503561119d565b3480156104e057600080fd5b506104e9611923565b6040805160ff9092168252519081900360200190f35b34801561050b57600080fd5b5061051461192c565b604080516001600160a01b039092168252519081900360200190f35b34801561053c57600080fd5b506102fc61193b565b34801561055157600080fd5b506102fc61199c565b34801561056657600080fd5b506102fc6004803603602081101561057d57600080fd5b50356001600160a01b03166119a2565b34801561059957600080fd5b506105a26119b4565b604051808060200180602001838103835285818151815260200191508051906020019060200280838360005b838110156105e65781810151838201526020016105ce565b50505050905001838103825284818151815260200191508051906020019060200280838360005b8381101561062557818101518382015260200161060d565b5050505090500194505050505060405180910390f35b34801561064757600080fd5b506102fc611b4c565b34801561065c57600080fd5b506103b86004803603602081101561067357600080fd5b50356001600160a01b0316611c52565b34801561068f57600080fd5b506102fc600480360360208110156106a657600080fd5b50356001600160a01b0316611d0f565b3480156106c257600080fd5b506103b8611d21565b3480156106d757600080fd5b506102fc611de7565b3480156106ec57600080fd5b506103b8611e1b565b34801561070157600080fd5b506103b86004803603602081101561071857600080fd5b50356001600160a01b0316611f59565b34801561073457600080fd5b50610254612003565b34801561074957600080fd5b506105146004803603602081101561076057600080fd5b503561205e565b34801561077357600080fd5b506103b861206b565b34801561078857600080fd5b5061035c6004803603604081101561079f57600080fd5b506001600160a01b038135169060200135612075565b3480156107c157600080fd5b506107ca612089565b60405180806020018060200180602001848103845287818151815260200191508051906020019060200280838360005b838110156108125781810151838201526020016107fa565b50505050905001848103835286818151815260200191508051906020019060200280838360005b83811015610851578181015183820152602001610839565b50505050905001848103825285818151815260200191508051906020019060200280838360005b83811015610890578181015183820152602001610878565b50505050905001965050505050505060405180910390f35b3480156108b457600080fd5b506102fc600480360360208110156108cb57600080fd5b50356001600160a01b031661241c565b6103b861242e565b3480156108ef57600080fd5b506103b86004803603602081101561090657600080fd5b50356001600160a01b03166127f8565b34801561092257600080fd5b50610514612a5d565b34801561093757600080fd5b506102fc6004803603604081101561094e57600080fd5b506001600160a01b0381358116916020013516612a71565b34801561097257600080fd5b506102fc612a8e565b34801561098757600080fd5b506102fc612ad1565b34801561099c57600080fd5b506102fc612ad7565b3480156109b157600080fd5b50610514612add565b6002805460408051602060018416156101000260001901909316849004601f81018490048402820184019092528181529291830182828015610a3d5780601f10610a1257610100808354040283529160200191610a3d565b820191906000526020600020905b815481529060010190602001808311610a2057829003601f168201915b505050505081565b6000610a5082610c93565b506001600160a01b0381166000908152600d60205260409020545b919050565b6000805b610a7e6007612aec565b811015610b3557600454610b2b9061010090046001600160a01b031663a697ecff610aaa600785612af7565b306040518363ffffffff1660e01b815260040180836001600160a01b03168152602001826001600160a01b031681526020019250505060206040518083038186803b158015610af857600080fd5b505afa158015610b0c573d6000803e3d6000fd5b505050506040513d6020811015610b2257600080fd5b50518390612b03565b9150600101610a74565b5090565b3360008181526010602090815260408083206001600160a01b038716808552908352818420869055815186815291519394909390927f8c5be1e5ebec7d5bd14f71427d1e84f3dd0314c0f7b2291e5b200ac8c7c3b925928290030190a35060015b92915050565b60045460009061010090046001600160a01b0316815b610bc06007612aec565b811015610c8e57610c656001600160a01b03831663e9ab0300610be4600785612af7565b306040518363ffffffff1660e01b815260040180836001600160a01b03168152602001826001600160a01b031681526020019250505060206040518083038186803b158015610c3257600080fd5b505afa158015610c46573d6000803e3d6000fd5b505050506040513d6020811015610c5c57600080fd5b50518490612b03565b9250610c846001600160a01b03831663a697ecff610be4600785612af7565b9250600101610bb6565b505090565b610c9b612b5d565b6001600160a01b0381166000908152600f60205260409020548015610d82576001600160a01b0382166000908152600e602090815260408083208054600b549182905582518084019093526011835270726577617264496e6465782064656c746160781b93830193909352919291610d14918490612c03565b90508015610d7b576000610d3a670de0b6b3a7640000610d348685612c9a565b90612cf3565b6001600160a01b0386166000908152600d6020526040902054909150610d609082612b03565b6001600160a01b0386166000908152600d6020526040902055505b5050610d9f565b600b546001600160a01b0383166000908152600e60205260409020555b5050565b600a545b90565b60045460609060009061010090046001600160a01b0316815b610dcd6007612aec565b811015610e7f5760006001600160a01b03831663a697ecff610df0600785612af7565b306040518363ffffffff1660e01b815260040180836001600160a01b03168152602001826001600160a01b031681526020019250505060206040518083038186803b158015610e3e57600080fd5b505afa158015610e52573d6000803e3d6000fd5b505050506040513d6020811015610e6857600080fd5b50511115610e77576001909201915b600101610dc3565b508167ffffffffffffffff81118015610e9757600080fd5b50604051908082528060200260200182016040528015610ec1578160200160208202803683370190505b5092506000805b610ed26007612aec565b811015610fb55760006001600160a01b03841663a697ecff610ef5600785612af7565b306040518363ffffffff1660e01b815260040180836001600160a01b03168152602001826001600160a01b031681526020019250505060206040518083038186803b158015610f4357600080fd5b505afa158015610f57573d6000803e3d6000fd5b505050506040513d6020811015610f6d57600080fd5b50511115610fad57610f80600782612af7565b858381518110610f8c57fe5b60200260200101906001600160a01b031690816001600160a01b0316815250505b600101610ec8565b5050505090565b6001600160a01b0383166000908152600f6020526040812054821115610fe157600080fd5b610fea84610c93565b610ff383610c93565b6001600160a01b038416331480159061103157506001600160a01b038416600090815260106020908152604080832033845290915290205460001914155b15611091576001600160a01b038416600090815260106020908152604080832033845290915290205482111561106657600080fd5b6001600160a01b03841660009081526010602090815260408083203384529091529020805483900390555b6001600160a01b038085166000818152600f6020908152604080832080548890039055938716808352918490208054870190558351868152935191937fddf252ad1be2c89b69c2b068fc378daa952ba7f163c4a11628f55a4df523b3ef929081900390910190a35060019392505050565b6005546001600160a01b03163314611152576040805162461bcd60e51b815260206004820152600e60248201526d10591b5a5b881c995c5d5a5c995960921b604482015290519081900360640190fd5b61115d600782612d35565b50604080516001600160a01b038316815290517f0719c8bc6522957e7735717af2894124fbc9096cf04b5bfaabcff515779087659181900360200190a150565b6000600260015414156111f7576040805162461bcd60e51b815260206004820152601f60248201527f5265656e7472616e637947756172643a207265656e7472616e742063616c6c00604482015290519081900360640190fd5b6002600155336000908152600f6020526040902054821115611257576040805162461bcd60e51b8152602060048201526014602482015273496e73756666696369656e742062616c616e636560601b604482015290519081900360640190fd5b6000611261612a8e565b9050600061126f4783612d4a565b905083811080156112f65750600460019054906101000a90046001600160a01b03166001600160a01b031663f49425016040518163ffffffff1660e01b815260040160206040518083038186803b1580156112c957600080fd5b505afa1580156112dd573d6000803e3d6000fd5b505050506040513d60208110156112f357600080fd5b50515b156118885760045461010090046001600160a01b03166000805b61131a6007612aec565b8110156113f15761132c600782612af7565b9150600061133983612d8c565b905080156113e857836001600160a01b031663cfef1441846040518263ffffffff1660e01b815260040180826001600160a01b03168152602001915050600060405180830381600087803b15801561139057600080fd5b505af11580156113a4573d6000803e3d6000fd5b50506040805184815290516001600160a01b03871693507f4340c7ff2cdebed2d56e70d56d91830025340d6a370e41d6e0417737147340b092509081900360200190a25b50600101611310565b506113fc4785612d4a565b925060008684101561163c576000836001600160a01b031663da7a9b6a6040518163ffffffff1660e01b815260040160206040518083038186803b15801561144357600080fd5b505afa158015611457573d6000803e3d6000fd5b505050506040513d602081101561146d57600080fd5b50519050600080805b6114806007612aec565b81101561163757878b1161149557600061149f565b61149f8b89612d4a565b9450846114ab57611637565b6114b6600782612af7565b9550866001600160a01b0316636bda157787306040518363ffffffff1660e01b815260040180836001600160a01b03168152602001826001600160a01b031681526020019250505060206040518083038186803b15801561151657600080fd5b505afa15801561152a573d6000803e3d6000fd5b505050506040513d602081101561154057600080fd5b50519150811561162f578482101580156115635750836115608387612d4a565b10155b1561157057849250611574565b8192505b866001600160a01b031663f3fef3a387856040518363ffffffff1660e01b815260040180836001600160a01b0316815260200182815260200192505050600060405180830381600087803b1580156115cb57600080fd5b505af11580156115df573d6000803e3d6000fd5b50506040805186815290516001600160a01b038a1693507f61a0b4d879cd5e5653631acae542581573d52905e66efcbb6246efca1ef306d692509081900360200190a261162c478a612d4a565b97505b600101611476565b505050505b6116464786612d4a565b935086841015611884576000836001600160a01b031663da7a9b6a6040518163ffffffff1660e01b815260040160206040518083038186803b15801561168b57600080fd5b505afa15801561169f573d6000803e3d6000fd5b505050506040513d60208110156116b557600080fd5b50519050600080805b6116c86007612aec565b81101561187f57878b116116dd5760006116e7565b6116e78b89612d4a565b9450846116f35761187f565b6116fe600782612af7565b9550866001600160a01b031663950a651387306040518363ffffffff1660e01b815260040180836001600160a01b03168152602001826001600160a01b031681526020019250505060206040518083038186803b15801561175e57600080fd5b505afa158015611772573d6000803e3d6000fd5b505050506040513d602081101561178857600080fd5b505191508115611877578482101580156117ab5750836117a88387612d4a565b10155b156117b8578492506117bc565b8192505b866001600160a01b031663b61ed63a87856040518363ffffffff1660e01b815260040180836001600160a01b0316815260200182815260200192505050600060405180830381600087803b15801561181357600080fd5b505af1158015611827573d6000803e3d6000fd5b50506040805186815290516001600160a01b038a1693507f828b8af32701298b029bfa3492ac3772c520d2924fc977b0ca3220625fca4e9c92509081900360200190a2611874478a612d4a565b97505b6001016116be565b505050505b5050505b6118924783612d4a565b905060006118a08583612f23565b905080156118e1576118b23382612f39565b604051339082156108fc029083906000818181858888f193505050501580156118df573d6000803e3d6000fd5b505b60408051828152905133917f7fcf532c15f0a6db0bd6d0e038bea71d30d808c7d98cb3bf7268a95bf5081b65919081900360200190a260018055949350505050565b60045460ff1681565b6006546001600160a01b031681565b600061194633610c93565b336000818152600d602052604080822054905181156108fc0292818181858888f1935050505015801561197d573d6000803e3d6000fd5b50336000908152600d6020526040812055611996612a8e565b600c5590565b60095481565b600d6020526000908152604090205481565b600454606090819061010090046001600160a01b031660006119d66007612aec565b90508067ffffffffffffffff811180156119ef57600080fd5b50604051908082528060200260200182016040528015611a19578160200160208202803683370190505b5093508067ffffffffffffffff81118015611a3357600080fd5b50604051908082528060200260200182016040528015611a5d578160200160208202803683370190505b50925060005b81811015611b4557611a76600782612af7565b858281518110611a8257fe5b6001600160a01b039283166020918202929092010152831663a697ecff611aaa600784612af7565b306040518363ffffffff1660e01b815260040180836001600160a01b03168152602001826001600160a01b031681526020019250505060206040518083038186803b158015611af857600080fd5b505afa158015611b0c573d6000803e3d6000fd5b505050506040513d6020811015611b2257600080fd5b50518451859083908110611b3257fe5b6020908102919091010152600101611a63565b5050509091565b6000611b56611de7565b9050600080805b611b676007612aec565b811015611c4c57611b79600782612af7565b9150611c24600460019054906101000a90046001600160a01b03166001600160a01b0316636bda157784306040518363ffffffff1660e01b815260040180836001600160a01b03168152602001826001600160a01b031681526020019250505060206040518083038186803b158015611bf157600080fd5b505afa158015611c05573d6000803e3d6000fd5b505050506040513d6020811015611c1b57600080fd5b50518590612b03565b9350611c2f82612d8c565b92508215611c4457611c418484612b03565b93505b600101611b5d565b50505090565b6005546001600160a01b03163314611ca2576040805162461bcd60e51b815260206004820152600e60248201526d10591b5a5b881c995c5d5a5c995960921b604482015290519081900360640190fd5b600480546001600160a01b03838116610100818102610100600160a81b03198516179094556040805194909304919091168084526020840191909152815190927ffdc27664084fea27b5efcdf406298bb23454f212a4e72b4ef90c6c77ff2a934a92908290030190a15050565b600f6020526000908152604090205481565b6006546001600160a01b03163314611d79576040805162461bcd60e51b8152602060048201526016602482015275141c9bdc1bdcd95910591b5a5b881c995c5d5a5c995960521b604482015290519081900360640190fd5b60058054600680546001600160a01b03198084166001600160a01b03838116919091179586905591169091556040805192821680845293909116602083015280517f60cae9fabd3bef6b015e14f55d6c66df6c507bbacdb16149e2bf7c440690da279281900390910190a150565b60004781611df3612a8e565b905080821115611e1057611e078282612d4a565b92505050610da7565b600092505050610da7565b600054610100900460ff1680611e345750611e34612fcc565b80611e42575060005460ff16155b611e7d5760405162461bcd60e51b815260040180806020018281038252602e815260200180613323602e913960400191505060405180910390fd5b600054610100900460ff16158015611ea8576000805460ff1961ff0019909116610100171660011790555b600580546001600160a01b0319163317905560408051808201909152600d8082526c5374616b696e672056656c617360981b6020909201918252611eee91600291613276565b50604080518082019091526004808252630a6ac98b60e31b6020909201918252611f1a91600391613276565b50600480546000600955601260ff1990911617610100600160a81b031916610100601160a01b011790558015611f56576000805461ff00191690555b50565b6005546001600160a01b03163314611fa9576040805162461bcd60e51b815260206004820152600e60248201526d10591b5a5b881c995c5d5a5c995960921b604482015290519081900360640190fd5b600680546001600160a01b0319166001600160a01b03838116919091179182905560408051929091168252517f2c4244392c58c5683fb627aa721711e3d9fbd95b3c5c6d865e7ca955dcb874a1916020908290030190a150565b6003805460408051602060026001851615610100026000190190941693909304601f81018490048402820184019092528181529291830182828015610a3d5780601f10610a1257610100808354040283529160200191610a3d565b6000610b9a600783612af7565b612073612b5d565b565b6000612082338484610fbc565b9392505050565b60608060606000600460019054906101000a90046001600160a01b031690506000816001600160a01b031663794c0c686040518163ffffffff1660e01b815260040160206040518083038186803b1580156120e357600080fd5b505afa1580156120f7573d6000803e3d6000fd5b505050506040513d602081101561210d57600080fd5b50519050600061211d6007612aec565b90508067ffffffffffffffff8111801561213657600080fd5b50604051908082528060200260200182016040528015612160578160200160208202803683370190505b5095508067ffffffffffffffff8111801561217a57600080fd5b506040519080825280602002602001820160405280156121a4578160200160208202803683370190505b5094508067ffffffffffffffff811180156121be57600080fd5b506040519080825280602002602001820160405280156121e8578160200160208202803683370190505b50935060005b818110156124135760006001600160a01b03851663e9ab0300612212600785612af7565b306040518363ffffffff1660e01b815260040180836001600160a01b03168152602001826001600160a01b031681526020019250505060206040518083038186803b15801561226057600080fd5b505afa158015612274573d6000803e3d6000fd5b505050506040513d602081101561228a57600080fd5b50519050612299600783612af7565b8883815181106122a557fe5b60200260200101906001600160a01b031690816001600160a01b031681525050808783815181106122d257fe5b60209081029190910101526001600160a01b03851663a42059676122f7600785612af7565b306040518363ffffffff1660e01b815260040180836001600160a01b03168152602001826001600160a01b031681526020019250505060206040518083038186803b15801561234557600080fd5b505afa158015612359573d6000803e3d6000fd5b505050506040513d602081101561236f57600080fd5b50518414801561237f5750600081115b1561240a57846001600160a01b0316638c2243ae6040518163ffffffff1660e01b815260040160206040518083038186803b1580156123bd57600080fd5b505afa1580156123d1573d6000803e3d6000fd5b505050506040513d60208110156123e757600080fd5b505186516001909101908790849081106123fd57fe5b6020026020010181815250505b506001016121ee565b50505050909192565b600e6020526000908152604090205481565b60026001541415612486576040805162461bcd60e51b815260206004820152601f60248201527f5265656e7472616e637947756172643a207265656e7472616e742063616c6c00604482015290519081900360640190fd5b6002600155346124d5576040805162461bcd60e51b8152602060048201526015602482015274416d6f756e742063616e6e6f74206265207a65726f60581b604482015290519081900360640190fd5b60006124ed6009546007612af790919063ffffffff16565b90506001600160a01b038116612541576040805162461bcd60e51b8152602060048201526014602482015273506f6f6c206973207a65726f206164647265737360601b604482015290519081900360640190fd5b61254b3334612fd2565b6000612555612a8e565b905060006125634783612d4a565b905061256f6007612aec565b6009546001018161257c57fe5b06600981905550600460019054906101000a90046001600160a01b03166001600160a01b031663f49425016040518163ffffffff1660e01b815260040160206040518083038186803b1580156125d157600080fd5b505afa1580156125e5573d6000803e3d6000fd5b505050506040513d60208110156125fb57600080fd5b5051801561272a57506000600460019054906101000a90046001600160a01b03166001600160a01b031663a697ecff85306040518363ffffffff1660e01b815260040180836001600160a01b03168152602001826001600160a01b031681526020019250505060206040518083038186803b15801561267957600080fd5b505afa15801561268d573d6000803e3d6000fd5b505050506040513d60208110156126a357600080fd5b5051118061272a5750600460019054906101000a90046001600160a01b03166001600160a01b031663da7a9b6a6040518163ffffffff1660e01b815260040160206040518083038186803b1580156126fa57600080fd5b505afa15801561270e573d6000803e3d6000fd5b505050506040513d602081101561272457600080fd5b50518110155b156127b557600460019054906101000a90046001600160a01b03166001600160a01b031663adc9772e8285846040518463ffffffff1660e01b815260040180836001600160a01b03168152602001828152602001925050506000604051808303818588803b15801561279b57600080fd5b505af11580156127af573d6000803e3d6000fd5b50505050505b6040805134815260208101839052815133927f90890809c654f11d6e72a28fa60149770a0d11ec6c92319d6ceb2bb0a4ea1a15928290030190a250506001805550565b6005546001600160a01b03163314612848576040805162461bcd60e51b815260206004820152600e60248201526d10591b5a5b881c995c5d5a5c995960921b604482015290519081900360640190fd5b60006060600460019054906101000a90046001600160a01b03166001600160a01b031663673a2a1f6040518163ffffffff1660e01b815260040160006040518083038186803b15801561289a57600080fd5b505afa1580156128ae573d6000803e3d6000fd5b505050506040513d6000823e601f3d908101601f1916820160405260208110156128d757600080fd5b81019080805160405193929190846401000000008211156128f757600080fd5b90830190602082018581111561290c57600080fd5b825186602082028301116401000000008211171561292957600080fd5b82525081516020918201928201910280838360005b8381101561295657818101518382015260200161293e565b50505050905001604052505050905060005b81518110156129c157836001600160a01b031682828151811061298757fe5b60200260200101516001600160a01b031614156129b9578181815181106129aa57fe5b602002602001015192506129c1565b600101612968565b506001600160a01b038216612a10576040805162461bcd60e51b815260206004820152601060248201526f125b9d985b1a59081b995dc81c1bdbdb60821b604482015290519081900360640190fd5b612a1b60078361306c565b50604080516001600160a01b038416815290517f8c82d670bc9247c2cfb6964089bc9cff0255f9caade6fbc74a13368083e554669181900360200190a1505050565b60045461010090046001600160a01b031681565b601060209081526000928352604080842090915290825290205481565b60004781612a9a610ba0565b600a54909150612aaa8284612b03565b11612aba57600092505050610da7565b600a54611e0790612acb8385612b03565b90612d4a565b600b5481565b600c5481565b6005546001600160a01b031681565b6000610b9a82613081565b60006120828383613085565b600082820183811015612082576040805162461bcd60e51b815260206004820152601b60248201527f536166654d6174683a206164646974696f6e206f766572666c6f770000000000604482015290519081900360640190fd5b600a5415612073576000612b6f612a8e565b9050600c54811115611f56576000612bbc600c546040518060400160405280601081526020016f3932bbb0b9322232b13a102fb234b33360811b81525084612c039092919063ffffffff16565b90508015610d9f57600a54600090612be090610d3484670de0b6b3a7640000612c9a565b90508015612bfe57600b54612bf59082612b03565b600b55600c8390555b505050565b60008184841115612c925760405162461bcd60e51b81526004018080602001828103825283818151815260200191508051906020019080838360005b83811015612c57578181015183820152602001612c3f565b50505050905090810190601f168015612c845780820380516001836020036101000a031916815260200191505b509250505060405180910390fd5b505050900390565b600082612ca957506000610b9a565b82820282848281612cb657fe5b04146120825760405162461bcd60e51b81526004018080602001828103825260218152602001806133516021913960400191505060405180910390fd5b600061208283836040518060400160405280601a81526020017f536166654d6174683a206469766973696f6e206279207a65726f0000000000008152506130e9565b6000612082836001600160a01b03841661314e565b600061208283836040518060400160405280601e81526020017f536166654d6174683a207375627472616374696f6e206f766572666c6f770000815250612c03565b600080600460019054906101000a90046001600160a01b031690506000816001600160a01b031663794c0c686040518163ffffffff1660e01b815260040160206040518083038186803b158015612de257600080fd5b505afa158015612df6573d6000803e3d6000fd5b505050506040513d6020811015612e0c57600080fd5b50516040805163a420596760e01b81526001600160a01b03878116600483015230602483015291519293509084169163a420596791604480820192602092909190829003018186803b158015612e6157600080fd5b505afa158015612e75573d6000803e3d6000fd5b505050506040513d6020811015612e8b57600080fd5b5051811115612f19576040805162e9ab0360e81b81526001600160a01b03868116600483015230602483015291519184169163e9ab030091604480820192602092909190829003018186803b158015612ee357600080fd5b505afa158015612ef7573d6000803e3d6000fd5b505050506040513d6020811015612f0d57600080fd5b50519250610a6b915050565b5060009392505050565b6000818310612f325781612082565b5090919050565b612f4282610c93565b600a54612f4f9082612d4a565b600a556001600160a01b0382166000908152600f6020526040902054612f759082612d4a565b6001600160a01b0383166000818152600f60209081526040808320949094558351858152935191937fddf252ad1be2c89b69c2b068fc378daa952ba7f163c4a11628f55a4df523b3ef929081900390910190a35050565b303b1590565b600a54612fdf9082612b03565b600a556001600160a01b0382166000908152600f60205260409020546130059082612b03565b6001600160a01b0383166000908152600f602052604090205561302782610c93565b6040805182815290516001600160a01b038416916000917fddf252ad1be2c89b69c2b068fc378daa952ba7f163c4a11628f55a4df523b3ef9181900360200190a35050565b6000612082836001600160a01b038416613214565b5490565b815460009082106130c75760405162461bcd60e51b81526004018080602001828103825260228152602001806133016022913960400191505060405180910390fd5b8260000182815481106130d657fe5b9060005260206000200154905092915050565b600081836131385760405162461bcd60e51b8152602060048201818152835160248401528351909283926044909101919085019080838360008315612c57578181015183820152602001612c3f565b50600083858161314457fe5b0495945050505050565b6000818152600183016020526040812054801561320a578354600019808301919081019060009087908390811061318157fe5b906000526020600020015490508087600001848154811061319e57fe5b6000918252602080832090910192909255828152600189810190925260409020908401905586548790806131ce57fe5b60019003818190600052602060002001600090559055866001016000878152602001908152602001600020600090556001945050505050610b9a565b6000915050610b9a565b6000613220838361325e565b61325657508154600181810184556000848152602080822090930184905584548482528286019093526040902091909155610b9a565b506000610b9a565b60009081526001919091016020526040902054151590565b828054600181600116156101000203166002900490600052602060002090601f016020900481019282601f106132b757805160ff19168380011785556132e4565b828001600101855582156132e4579182015b828111156132e45782518255916020019190600101906132c9565b50610b359291505b80821115610b3557600081556001016132ec56fe456e756d657261626c655365743a20696e646578206f7574206f6620626f756e6473496e697469616c697a61626c653a20636f6e747261637420697320616c726561647920696e697469616c697a6564536166654d6174683a206d756c7469706c69636174696f6e206f766572666c6f77a264697066735822122030d73bb207e46f1c79a6cda6747a10c9cc3ac12b2ddc2c9b06e226c9d140feaa64736f6c634300060c0033",
  "devdoc": {
    "events": {
      "AddPool(address)": {
        "params": {
          "newPool": "new pool address"
        }
      },
      "ClaimAdmin(address,address)": {
        "params": {
          "newAdmin": "new address",
          "oldAdmin": "old address"
        }
      },
      "ClaimOrderedWithdraw(address,uint256)": {
        "params": {
          "amount": "ordered amount",
          "poolAddress": "pool address"
        }
      },
      "OrderWithdraw(address,int256)": {
        "params": {
          "amount": "amount withdrew",
          "poolAddress": "pool address"
        }
      },
      "PoolWithdraw(address,uint256)": {
        "params": {
          "amount": "amount withdrew",
          "poolAddress": "pool address"
        }
      },
      "RemovePool(address)": {
        "params": {
          "pool": "pool address"
        }
      },
      "SetProposedAdmin(address)": {
        "params": {
          "proposedAdmin": "proposed admin address"
        }
      },
      "SetStakingAuRa(address,address)": {
        "params": {
          "newStakingAuRa": "new address",
          "oldStakingAuRa": "old address"
        }
      }
    },
    "kind": "dev",
    "methods": {
      "addPool(address)": {
        "params": {
          "_pool": "pool address"
        }
      },
      "remove(address)": {
        "params": {
          "_pool": "pool address"
        }
      },
      "setStakingAuRa(address)": {
        "params": {
          "_stakingAuRa": "staking contract address"
        }
      }
    },
    "stateVariables": {
      "_totalSupply": {
        "details": "SVLX token total supply"
      },
      "stakingPools": {
        "details": "Staking pool addresses"
      }
    },
    "version": 1
  },
  "userdoc": {
    "events": {
      "AddPool(address)": {
        "notice": "Event: Add a new staking pool"
      },
      "ClaimAdmin(address,address)": {
        "notice": "Event: Claim admin"
      },
      "ClaimOrderedWithdraw(address,uint256)": {
        "notice": "Event: claim previously ordered tokens"
      },
      "OrderWithdraw(address,int256)": {
        "notice": "Event: withdraw from the ordered tokens"
      },
      "PoolWithdraw(address,uint256)": {
        "notice": "Event: withdraw from the pool"
      },
      "RemovePool(address)": {
        "notice": "Event: Remove a existing staking pool"
      },
      "SetProposedAdmin(address)": {
        "notice": "Event: Set proposed admin"
      },
      "SetStakingAuRa(address,address)": {
        "notice": "Event: Set the staking contract address"
      }
    },
    "kind": "user",
    "methods": {
      "addPool(address)": {
        "notice": "Add a new staking pool"
      },
      "admin()": {
        "notice": "contract admin address"
      },
      "claimAdmin()": {
        "notice": "Claim the admin"
      },
      "deposit()": {
        "notice": "Deposit VLX into VELAS pools and mint SVLX tokens"
      },
      "getLocalRedeemable()": {
        "notice": "Returnt the total amount that can be redeemed by the SVLX holders"
      },
      "getPoolTotalBalance()": {
        "notice": "Get the total amount of VLX in the staking pools, including the staked and ordered amount"
      },
      "getPoolsStaked()": {
        "notice": "Get all the staking pools"
      },
      "getStakedPools()": {
        "notice": "Get the pools where the stake amount is greater than 0"
      },
      "getTotalRewards()": {
        "notice": "Return the total staking rewards collected"
      },
      "getTotalStaked()": {
        "notice": "Get the amount of total staked VLX"
      },
      "getTotalWithdrawable()": {
        "notice": "Get the total withdrawable amount, including the redeemable balance of the contract, and ordered and unlocked amount in the staking pools."
      },
      "poolIndex()": {
        "notice": "Next pool index"
      },
      "proposedAdmin()": {
        "notice": "Proposed new admin address"
      },
      "remove(address)": {
        "notice": "Remove a staking pool"
      },
      "setStakingAuRa(address)": {
        "notice": "Set the staking contract address"
      },
      "stakingAuRa()": {
        "notice": "VELAS staking contract"
      },
      "withdraw(uint256)": {
        "notice": "Redeem VLX from the stake pools"
      }
    },
    "version": 1
  },
  "storageLayout": {
    "storage": [
      {
        "astId": 2766,
        "contract": "contracts/SVLX.sol:SVLX",
        "label": "_initialized",
        "offset": 0,
        "slot": "0",
        "type": "t_bool"
      },
      {
        "astId": 2769,
        "contract": "contracts/SVLX.sol:SVLX",
        "label": "_initializing",
        "offset": 1,
        "slot": "0",
        "type": "t_bool"
      },
      {
        "astId": 2917,
        "contract": "contracts/SVLX.sol:SVLX",
        "label": "_status",
        "offset": 0,
        "slot": "1",
        "type": "t_uint256"
      },
      {
        "astId": 25,
        "contract": "contracts/SVLX.sol:SVLX",
        "label": "name",
        "offset": 0,
        "slot": "2",
        "type": "t_string_storage"
      },
      {
        "astId": 27,
        "contract": "contracts/SVLX.sol:SVLX",
        "label": "symbol",
        "offset": 0,
        "slot": "3",
        "type": "t_string_storage"
      },
      {
        "astId": 29,
        "contract": "contracts/SVLX.sol:SVLX",
        "label": "decimals",
        "offset": 0,
        "slot": "4",
        "type": "t_uint8"
      },
      {
        "astId": 32,
        "contract": "contracts/SVLX.sol:SVLX",
        "label": "stakingAuRa",
        "offset": 1,
        "slot": "4",
        "type": "t_contract(IStakingAuRa)2073"
      },
      {
        "astId": 35,
        "contract": "contracts/SVLX.sol:SVLX",
        "label": "admin",
        "offset": 0,
        "slot": "5",
        "type": "t_address"
      },
      {
        "astId": 38,
        "contract": "contracts/SVLX.sol:SVLX",
        "label": "proposedAdmin",
        "offset": 0,
        "slot": "6",
        "type": "t_address"
      },
      {
        "astId": 41,
        "contract": "contracts/SVLX.sol:SVLX",
        "label": "stakingPools",
        "offset": 0,
        "slot": "7",
        "type": "t_struct(AddressSet)2544_storage"
      },
      {
        "astId": 44,
        "contract": "contracts/SVLX.sol:SVLX",
        "label": "poolIndex",
        "offset": 0,
        "slot": "9",
        "type": "t_uint256"
      },
      {
        "astId": 47,
        "contract": "contracts/SVLX.sol:SVLX",
        "label": "_totalSupply",
        "offset": 0,
        "slot": "10",
        "type": "t_uint256"
      },
      {
        "astId": 50,
        "contract": "contracts/SVLX.sol:SVLX",
        "label": "rewardIndex",
        "offset": 0,
        "slot": "11",
        "type": "t_uint256"
      },
      {
        "astId": 53,
        "contract": "contracts/SVLX.sol:SVLX",
        "label": "rewardDebt",
        "offset": 0,
        "slot": "12",
        "type": "t_uint256"
      },
      {
        "astId": 57,
        "contract": "contracts/SVLX.sol:SVLX",
        "label": "userRewardClaimable",
        "offset": 0,
        "slot": "13",
        "type": "t_mapping(t_address,t_uint256)"
      },
      {
        "astId": 61,
        "contract": "contracts/SVLX.sol:SVLX",
        "label": "userRewardIndex",
        "offset": 0,
        "slot": "14",
        "type": "t_mapping(t_address,t_uint256)"
      },
      {
        "astId": 145,
        "contract": "contracts/SVLX.sol:SVLX",
        "label": "balanceOf",
        "offset": 0,
        "slot": "15",
        "type": "t_mapping(t_address,t_uint256)"
      },
      {
        "astId": 151,
        "contract": "contracts/SVLX.sol:SVLX",
        "label": "allowance",
        "offset": 0,
        "slot": "16",
        "type": "t_mapping(t_address,t_mapping(t_address,t_uint256))"
      }
    ],
    "types": {
      "t_address": {
        "encoding": "inplace",
        "label": "address",
        "numberOfBytes": "20"
      },
      "t_array(t_bytes32)dyn_storage": {
        "base": "t_bytes32",
        "encoding": "dynamic_array",
        "label": "bytes32[]",
        "numberOfBytes": "32"
      },
      "t_bool": {
        "encoding": "inplace",
        "label": "bool",
        "numberOfBytes": "1"
      },
      "t_bytes32": {
        "encoding": "inplace",
        "label": "bytes32",
        "numberOfBytes": "32"
      },
      "t_contract(IStakingAuRa)2073": {
        "encoding": "inplace",
        "label": "contract IStakingAuRa",
        "numberOfBytes": "20"
      },
      "t_mapping(t_address,t_mapping(t_address,t_uint256))": {
        "encoding": "mapping",
        "key": "t_address",
        "label": "mapping(address => mapping(address => uint256))",
        "numberOfBytes": "32",
        "value": "t_mapping(t_address,t_uint256)"
      },
      "t_mapping(t_address,t_uint256)": {
        "encoding": "mapping",
        "key": "t_address",
        "label": "mapping(address => uint256)",
        "numberOfBytes": "32",
        "value": "t_uint256"
      },
      "t_mapping(t_bytes32,t_uint256)": {
        "encoding": "mapping",
        "key": "t_bytes32",
        "label": "mapping(bytes32 => uint256)",
        "numberOfBytes": "32",
        "value": "t_uint256"
      },
      "t_string_storage": {
        "encoding": "bytes",
        "label": "string",
        "numberOfBytes": "32"
      },
      "t_struct(AddressSet)2544_storage": {
        "encoding": "inplace",
        "label": "struct EnumerableSet.AddressSet",
        "members": [
          {
            "astId": 2543,
            "contract": "contracts/SVLX.sol:SVLX",
            "label": "_inner",
            "offset": 0,
            "slot": "0",
            "type": "t_struct(Set)2279_storage"
          }
        ],
        "numberOfBytes": "64"
      },
      "t_struct(Set)2279_storage": {
        "encoding": "inplace",
        "label": "struct EnumerableSet.Set",
        "members": [
          {
            "astId": 2274,
            "contract": "contracts/SVLX.sol:SVLX",
            "label": "_values",
            "offset": 0,
            "slot": "0",
            "type": "t_array(t_bytes32)dyn_storage"
          },
          {
            "astId": 2278,
            "contract": "contracts/SVLX.sol:SVLX",
            "label": "_indexes",
            "offset": 0,
            "slot": "1",
            "type": "t_mapping(t_bytes32,t_uint256)"
          }
        ],
        "numberOfBytes": "64"
      },
      "t_uint256": {
        "encoding": "inplace",
        "label": "uint256",
        "numberOfBytes": "32"
      },
      "t_uint8": {
        "encoding": "inplace",
        "label": "uint8",
        "numberOfBytes": "1"
      }
    }
  }
}